{
	"data": {
		"bytecode": {
			"linkReferences": {},
			"object": "608060405234801561001057600080fd5b5033600a60006101000a81548173ffffffffffffffffffffffffffffffffffffffff021916908373ffffffffffffffffffffffffffffffffffffffff1602179055506104f0806100616000396000f3fe608060405234801561001057600080fd5b50600436106100415760003560e01c80630ecca7b51461004657806340a9fa2d14610050578063dfef03061461005a575b600080fd5b61004e610076565b005b610058610188565b005b610074600480360381019061006f9190610344565b61018a565b005b600a60009054906101000a900473ffffffffffffffffffffffffffffffffffffffff16600073ffffffffffffffffffffffffffffffffffffffff168173ffffffffffffffffffffffffffffffffffffffff161415610109576040517f08c379a000000000000000000000000000000000000000000000000000000000815260040161010090610408565b60405180910390fd5b60306004541115801561011e57506000600554115b801561012c57506000600354115b61016b576040517f08c379a00000000000000000000000000000000000000000000000000000000081526004016101629061049a565b60405180910390fd5b60016000806101000a81548160ff02191690831515021790555050565b565b600a60009054906101000a900473ffffffffffffffffffffffffffffffffffffffff16600073ffffffffffffffffffffffffffffffffffffffff168173ffffffffffffffffffffffffffffffffffffffff16141561021d576040517f08c379a000000000000000000000000000000000000000000000000000000000815260040161021490610408565b60405180910390fd5b600a60009054906101000a900473ffffffffffffffffffffffffffffffffffffffff16600a60009054906101000a900473ffffffffffffffffffffffffffffffffffffffff1673ffffffffffffffffffffffffffffffffffffffff168173ffffffffffffffffffffffffffffffffffffffff161461029a57600080fd5b856004819055508460058190555083600060016101000a81548160ff02191690831515021790555082600181905550505050505050565b600080fd5b6000819050919050565b6102e9816102d6565b81146102f457600080fd5b50565b600081359050610306816102e0565b92915050565b60008115159050919050565b6103218161030c565b811461032c57600080fd5b50565b60008135905061033e81610318565b92915050565b6000806000806080858703121561035e5761035d6102d1565b5b600061036c878288016102f7565b945050602061037d878288016102f7565b935050604061038e8782880161032f565b925050606061039f878288016102f7565b91505092959194509250565b600082825260208201905092915050565b7f4e6f742076616c69642061646472657373000000000000000000000000000000600082015250565b60006103f26011836103ab565b91506103fd826103bc565b602082019050919050565b60006020820190508181036000830152610421816103e5565b9050919050565b7f4174206c65617374206f6e652070617274206f6620796f75722061756374696f60008201527f6e20697320696e636f72726563742e0000000000000000000000000000000000602082015250565b6000610484602f836103ab565b915061048f82610428565b604082019050919050565b600060208201905081810360008301526104b381610477565b905091905056fea2646970667358221220becff9847a04347cbbdaf9f8836abdc2915a54499c869224bd5f68ceb78666e364736f6c634300080a0033",
			"opcodes": "PUSH1 0x80 PUSH1 0x40 MSTORE CALLVALUE DUP1 ISZERO PUSH2 0x10 JUMPI PUSH1 0x0 DUP1 REVERT JUMPDEST POP CALLER PUSH1 0xA PUSH1 0x0 PUSH2 0x100 EXP DUP2 SLOAD DUP2 PUSH20 0xFFFFFFFFFFFFFFFFFFFFFFFFFFFFFFFFFFFFFFFF MUL NOT AND SWAP1 DUP4 PUSH20 0xFFFFFFFFFFFFFFFFFFFFFFFFFFFFFFFFFFFFFFFF AND MUL OR SWAP1 SSTORE POP PUSH2 0x4F0 DUP1 PUSH2 0x61 PUSH1 0x0 CODECOPY PUSH1 0x0 RETURN INVALID PUSH1 0x80 PUSH1 0x40 MSTORE CALLVALUE DUP1 ISZERO PUSH2 0x10 JUMPI PUSH1 0x0 DUP1 REVERT JUMPDEST POP PUSH1 0x4 CALLDATASIZE LT PUSH2 0x41 JUMPI PUSH1 0x0 CALLDATALOAD PUSH1 0xE0 SHR DUP1 PUSH4 0xECCA7B5 EQ PUSH2 0x46 JUMPI DUP1 PUSH4 0x40A9FA2D EQ PUSH2 0x50 JUMPI DUP1 PUSH4 0xDFEF0306 EQ PUSH2 0x5A JUMPI JUMPDEST PUSH1 0x0 DUP1 REVERT JUMPDEST PUSH2 0x4E PUSH2 0x76 JUMP JUMPDEST STOP JUMPDEST PUSH2 0x58 PUSH2 0x188 JUMP JUMPDEST STOP JUMPDEST PUSH2 0x74 PUSH1 0x4 DUP1 CALLDATASIZE SUB DUP2 ADD SWAP1 PUSH2 0x6F SWAP2 SWAP1 PUSH2 0x344 JUMP JUMPDEST PUSH2 0x18A JUMP JUMPDEST STOP JUMPDEST PUSH1 0xA PUSH1 0x0 SWAP1 SLOAD SWAP1 PUSH2 0x100 EXP SWAP1 DIV PUSH20 0xFFFFFFFFFFFFFFFFFFFFFFFFFFFFFFFFFFFFFFFF AND PUSH1 0x0 PUSH20 0xFFFFFFFFFFFFFFFFFFFFFFFFFFFFFFFFFFFFFFFF AND DUP2 PUSH20 0xFFFFFFFFFFFFFFFFFFFFFFFFFFFFFFFFFFFFFFFF AND EQ ISZERO PUSH2 0x109 JUMPI PUSH1 0x40 MLOAD PUSH32 0x8C379A000000000000000000000000000000000000000000000000000000000 DUP2 MSTORE PUSH1 0x4 ADD PUSH2 0x100 SWAP1 PUSH2 0x408 JUMP JUMPDEST PUSH1 0x40 MLOAD DUP1 SWAP2 SUB SWAP1 REVERT JUMPDEST PUSH1 0x30 PUSH1 0x4 SLOAD GT ISZERO DUP1 ISZERO PUSH2 0x11E JUMPI POP PUSH1 0x0 PUSH1 0x5 SLOAD GT JUMPDEST DUP1 ISZERO PUSH2 0x12C JUMPI POP PUSH1 0x0 PUSH1 0x3 SLOAD GT JUMPDEST PUSH2 0x16B JUMPI PUSH1 0x40 MLOAD PUSH32 0x8C379A000000000000000000000000000000000000000000000000000000000 DUP2 MSTORE PUSH1 0x4 ADD PUSH2 0x162 SWAP1 PUSH2 0x49A JUMP JUMPDEST PUSH1 0x40 MLOAD DUP1 SWAP2 SUB SWAP1 REVERT JUMPDEST PUSH1 0x1 PUSH1 0x0 DUP1 PUSH2 0x100 EXP DUP2 SLOAD DUP2 PUSH1 0xFF MUL NOT AND SWAP1 DUP4 ISZERO ISZERO MUL OR SWAP1 SSTORE POP POP JUMP JUMPDEST JUMP JUMPDEST PUSH1 0xA PUSH1 0x0 SWAP1 SLOAD SWAP1 PUSH2 0x100 EXP SWAP1 DIV PUSH20 0xFFFFFFFFFFFFFFFFFFFFFFFFFFFFFFFFFFFFFFFF AND PUSH1 0x0 PUSH20 0xFFFFFFFFFFFFFFFFFFFFFFFFFFFFFFFFFFFFFFFF AND DUP2 PUSH20 0xFFFFFFFFFFFFFFFFFFFFFFFFFFFFFFFFFFFFFFFF AND EQ ISZERO PUSH2 0x21D JUMPI PUSH1 0x40 MLOAD PUSH32 0x8C379A000000000000000000000000000000000000000000000000000000000 DUP2 MSTORE PUSH1 0x4 ADD PUSH2 0x214 SWAP1 PUSH2 0x408 JUMP JUMPDEST PUSH1 0x40 MLOAD DUP1 SWAP2 SUB SWAP1 REVERT JUMPDEST PUSH1 0xA PUSH1 0x0 SWAP1 SLOAD SWAP1 PUSH2 0x100 EXP SWAP1 DIV PUSH20 0xFFFFFFFFFFFFFFFFFFFFFFFFFFFFFFFFFFFFFFFF AND PUSH1 0xA PUSH1 0x0 SWAP1 SLOAD SWAP1 PUSH2 0x100 EXP SWAP1 DIV PUSH20 0xFFFFFFFFFFFFFFFFFFFFFFFFFFFFFFFFFFFFFFFF AND PUSH20 0xFFFFFFFFFFFFFFFFFFFFFFFFFFFFFFFFFFFFFFFF AND DUP2 PUSH20 0xFFFFFFFFFFFFFFFFFFFFFFFFFFFFFFFFFFFFFFFF AND EQ PUSH2 0x29A JUMPI PUSH1 0x0 DUP1 REVERT JUMPDEST DUP6 PUSH1 0x4 DUP2 SWAP1 SSTORE POP DUP5 PUSH1 0x5 DUP2 SWAP1 SSTORE POP DUP4 PUSH1 0x0 PUSH1 0x1 PUSH2 0x100 EXP DUP2 SLOAD DUP2 PUSH1 0xFF MUL NOT AND SWAP1 DUP4 ISZERO ISZERO MUL OR SWAP1 SSTORE POP DUP3 PUSH1 0x1 DUP2 SWAP1 SSTORE POP POP POP POP POP POP POP JUMP JUMPDEST PUSH1 0x0 DUP1 REVERT JUMPDEST PUSH1 0x0 DUP2 SWAP1 POP SWAP2 SWAP1 POP JUMP JUMPDEST PUSH2 0x2E9 DUP2 PUSH2 0x2D6 JUMP JUMPDEST DUP2 EQ PUSH2 0x2F4 JUMPI PUSH1 0x0 DUP1 REVERT JUMPDEST POP JUMP JUMPDEST PUSH1 0x0 DUP2 CALLDATALOAD SWAP1 POP PUSH2 0x306 DUP2 PUSH2 0x2E0 JUMP JUMPDEST SWAP3 SWAP2 POP POP JUMP JUMPDEST PUSH1 0x0 DUP2 ISZERO ISZERO SWAP1 POP SWAP2 SWAP1 POP JUMP JUMPDEST PUSH2 0x321 DUP2 PUSH2 0x30C JUMP JUMPDEST DUP2 EQ PUSH2 0x32C JUMPI PUSH1 0x0 DUP1 REVERT JUMPDEST POP JUMP JUMPDEST PUSH1 0x0 DUP2 CALLDATALOAD SWAP1 POP PUSH2 0x33E DUP2 PUSH2 0x318 JUMP JUMPDEST SWAP3 SWAP2 POP POP JUMP JUMPDEST PUSH1 0x0 DUP1 PUSH1 0x0 DUP1 PUSH1 0x80 DUP6 DUP8 SUB SLT ISZERO PUSH2 0x35E JUMPI PUSH2 0x35D PUSH2 0x2D1 JUMP JUMPDEST JUMPDEST PUSH1 0x0 PUSH2 0x36C DUP8 DUP3 DUP9 ADD PUSH2 0x2F7 JUMP JUMPDEST SWAP5 POP POP PUSH1 0x20 PUSH2 0x37D DUP8 DUP3 DUP9 ADD PUSH2 0x2F7 JUMP JUMPDEST SWAP4 POP POP PUSH1 0x40 PUSH2 0x38E DUP8 DUP3 DUP9 ADD PUSH2 0x32F JUMP JUMPDEST SWAP3 POP POP PUSH1 0x60 PUSH2 0x39F DUP8 DUP3 DUP9 ADD PUSH2 0x2F7 JUMP JUMPDEST SWAP2 POP POP SWAP3 SWAP6 SWAP2 SWAP5 POP SWAP3 POP JUMP JUMPDEST PUSH1 0x0 DUP3 DUP3 MSTORE PUSH1 0x20 DUP3 ADD SWAP1 POP SWAP3 SWAP2 POP POP JUMP JUMPDEST PUSH32 0x4E6F742076616C69642061646472657373000000000000000000000000000000 PUSH1 0x0 DUP3 ADD MSTORE POP JUMP JUMPDEST PUSH1 0x0 PUSH2 0x3F2 PUSH1 0x11 DUP4 PUSH2 0x3AB JUMP JUMPDEST SWAP2 POP PUSH2 0x3FD DUP3 PUSH2 0x3BC JUMP JUMPDEST PUSH1 0x20 DUP3 ADD SWAP1 POP SWAP2 SWAP1 POP JUMP JUMPDEST PUSH1 0x0 PUSH1 0x20 DUP3 ADD SWAP1 POP DUP2 DUP2 SUB PUSH1 0x0 DUP4 ADD MSTORE PUSH2 0x421 DUP2 PUSH2 0x3E5 JUMP JUMPDEST SWAP1 POP SWAP2 SWAP1 POP JUMP JUMPDEST PUSH32 0x4174206C65617374206F6E652070617274206F6620796F75722061756374696F PUSH1 0x0 DUP3 ADD MSTORE PUSH32 0x6E20697320696E636F72726563742E0000000000000000000000000000000000 PUSH1 0x20 DUP3 ADD MSTORE POP JUMP JUMPDEST PUSH1 0x0 PUSH2 0x484 PUSH1 0x2F DUP4 PUSH2 0x3AB JUMP JUMPDEST SWAP2 POP PUSH2 0x48F DUP3 PUSH2 0x428 JUMP JUMPDEST PUSH1 0x40 DUP3 ADD SWAP1 POP SWAP2 SWAP1 POP JUMP JUMPDEST PUSH1 0x0 PUSH1 0x20 DUP3 ADD SWAP1 POP DUP2 DUP2 SUB PUSH1 0x0 DUP4 ADD MSTORE PUSH2 0x4B3 DUP2 PUSH2 0x477 JUMP JUMPDEST SWAP1 POP SWAP2 SWAP1 POP JUMP INVALID LOG2 PUSH5 0x6970667358 0x22 SLT KECCAK256 0xBE 0xCF 0xF9 DUP5 PUSH27 0x4347CBBDAF9F8836ABDC2915A54499C869224BD5F68CEB78666E3 PUSH5 0x736F6C6343 STOP ADDMOD EXP STOP CALLER "
		},
		"gasEstimates": {
			"creation": {
				"codeDepositCost": "252800",
				"executionCost": "24560",
				"totalCost": "277360"
			},
			"external": {
				"prepareAuction()": "32956",
				"sendNFTToBidder()": "144",
				"setUpAuction(uint256,uint256,bool,uint256)": "infinite"
			}
		},
		"methodIdentifiers": {
			"prepareAuction()": "0ecca7b5",
			"sendNFTToBidder()": "40a9fa2d",
			"setUpAuction(uint256,uint256,bool,uint256)": "dfef0306"
		}
	},
	"abi": [
		{
			"inputs": [],
			"stateMutability": "nonpayable",
			"type": "constructor"
		},
		{
			"inputs": [],
			"name": "prepareAuction",
			"outputs": [],
			"stateMutability": "nonpayable",
			"type": "function"
		},
		{
			"inputs": [],
			"name": "sendNFTToBidder",
			"outputs": [],
			"stateMutability": "nonpayable",
			"type": "function"
		},
		{
			"inputs": [
				{
					"internalType": "uint256",
					"name": "time",
					"type": "uint256"
				},
				{
					"internalType": "uint256",
					"name": "minBid",
					"type": "uint256"
				},
				{
					"internalType": "bool",
					"name": "hasBuyNow",
					"type": "bool"
				},
				{
					"internalType": "uint256",
					"name": "buyNow",
					"type": "uint256"
				}
			],
			"name": "setUpAuction",
			"outputs": [],
			"stateMutability": "nonpayable",
			"type": "function"
		}
	]
}