{
	"data": {
		"bytecode": {
			"linkReferences": {},
			"object": "608060405234801561001057600080fd5b5033600a60006101000a81548173ffffffffffffffffffffffffffffffffffffffff021916908373ffffffffffffffffffffffffffffffffffffffff1602179055506105c3806100616000396000f3fe608060405234801561001057600080fd5b506004361061004c5760003560e01c80630ecca7b51461005157806340a9fa2d1461005b578063954fa1c314610065578063dfef030614610083575b600080fd5b61005961009f565b005b6100636101b1565b005b61006d6101b3565b60405161007a9190610333565b60405180910390f35b61009d600480360381019061009891906103b7565b6101d3565b005b600a60009054906101000a900473ffffffffffffffffffffffffffffffffffffffff16600073ffffffffffffffffffffffffffffffffffffffff168173ffffffffffffffffffffffffffffffffffffffff161415610132576040517f08c379a00000000000000000000000000000000000000000000000000000000081526004016101299061047b565b60405180910390fd5b60306004541115801561014757506000600554115b801561015557506000600354115b610194576040517f08c379a000000000000000000000000000000000000000000000000000000000815260040161018b9061050d565b60405180910390fd5b60016000806101000a81548160ff02191690831515021790555050565b565b60006009546004546101c5919061055c565b600681905550600654905090565b600a60009054906101000a900473ffffffffffffffffffffffffffffffffffffffff16600073ffffffffffffffffffffffffffffffffffffffff168173ffffffffffffffffffffffffffffffffffffffff161415610266576040517f08c379a000000000000000000000000000000000000000000000000000000000815260040161025d9061047b565b60405180910390fd5b600a60009054906101000a900473ffffffffffffffffffffffffffffffffffffffff16600a60009054906101000a900473ffffffffffffffffffffffffffffffffffffffff1673ffffffffffffffffffffffffffffffffffffffff168173ffffffffffffffffffffffffffffffffffffffff16146102e357600080fd5b856004819055508460058190555083600060016101000a81548160ff02191690831515021790555082600181905550505050505050565b6000819050919050565b61032d8161031a565b82525050565b60006020820190506103486000830184610324565b92915050565b600080fd5b61035c8161031a565b811461036757600080fd5b50565b60008135905061037981610353565b92915050565b60008115159050919050565b6103948161037f565b811461039f57600080fd5b50565b6000813590506103b18161038b565b92915050565b600080600080608085870312156103d1576103d061034e565b5b60006103df8782880161036a565b94505060206103f08782880161036a565b9350506040610401878288016103a2565b92505060606104128782880161036a565b91505092959194509250565b600082825260208201905092915050565b7f4e6f742076616c69642061646472657373000000000000000000000000000000600082015250565b600061046560118361041e565b91506104708261042f565b602082019050919050565b6000602082019050818103600083015261049481610458565b9050919050565b7f4174206c65617374206f6e652070617274206f6620796f75722061756374696f60008201527f6e20697320696e636f72726563742e0000000000000000000000000000000000602082015250565b60006104f7602f8361041e565b91506105028261049b565b604082019050919050565b60006020820190508181036000830152610526816104ea565b9050919050565b7f4e487b7100000000000000000000000000000000000000000000000000000000600052601260045260246000fd5b60006105678261031a565b91506105728361031a565b9250826105825761058161052d565b5b82820490509291505056fea2646970667358221220f7401606a77313e641bbbef768c1199ae8bf675d7f248424bc7ca14a2c598f5864736f6c634300080a0033",
			"opcodes": "PUSH1 0x80 PUSH1 0x40 MSTORE CALLVALUE DUP1 ISZERO PUSH2 0x10 JUMPI PUSH1 0x0 DUP1 REVERT JUMPDEST POP CALLER PUSH1 0xA PUSH1 0x0 PUSH2 0x100 EXP DUP2 SLOAD DUP2 PUSH20 0xFFFFFFFFFFFFFFFFFFFFFFFFFFFFFFFFFFFFFFFF MUL NOT AND SWAP1 DUP4 PUSH20 0xFFFFFFFFFFFFFFFFFFFFFFFFFFFFFFFFFFFFFFFF AND MUL OR SWAP1 SSTORE POP PUSH2 0x5C3 DUP1 PUSH2 0x61 PUSH1 0x0 CODECOPY PUSH1 0x0 RETURN INVALID PUSH1 0x80 PUSH1 0x40 MSTORE CALLVALUE DUP1 ISZERO PUSH2 0x10 JUMPI PUSH1 0x0 DUP1 REVERT JUMPDEST POP PUSH1 0x4 CALLDATASIZE LT PUSH2 0x4C JUMPI PUSH1 0x0 CALLDATALOAD PUSH1 0xE0 SHR DUP1 PUSH4 0xECCA7B5 EQ PUSH2 0x51 JUMPI DUP1 PUSH4 0x40A9FA2D EQ PUSH2 0x5B JUMPI DUP1 PUSH4 0x954FA1C3 EQ PUSH2 0x65 JUMPI DUP1 PUSH4 0xDFEF0306 EQ PUSH2 0x83 JUMPI JUMPDEST PUSH1 0x0 DUP1 REVERT JUMPDEST PUSH2 0x59 PUSH2 0x9F JUMP JUMPDEST STOP JUMPDEST PUSH2 0x63 PUSH2 0x1B1 JUMP JUMPDEST STOP JUMPDEST PUSH2 0x6D PUSH2 0x1B3 JUMP JUMPDEST PUSH1 0x40 MLOAD PUSH2 0x7A SWAP2 SWAP1 PUSH2 0x333 JUMP JUMPDEST PUSH1 0x40 MLOAD DUP1 SWAP2 SUB SWAP1 RETURN JUMPDEST PUSH2 0x9D PUSH1 0x4 DUP1 CALLDATASIZE SUB DUP2 ADD SWAP1 PUSH2 0x98 SWAP2 SWAP1 PUSH2 0x3B7 JUMP JUMPDEST PUSH2 0x1D3 JUMP JUMPDEST STOP JUMPDEST PUSH1 0xA PUSH1 0x0 SWAP1 SLOAD SWAP1 PUSH2 0x100 EXP SWAP1 DIV PUSH20 0xFFFFFFFFFFFFFFFFFFFFFFFFFFFFFFFFFFFFFFFF AND PUSH1 0x0 PUSH20 0xFFFFFFFFFFFFFFFFFFFFFFFFFFFFFFFFFFFFFFFF AND DUP2 PUSH20 0xFFFFFFFFFFFFFFFFFFFFFFFFFFFFFFFFFFFFFFFF AND EQ ISZERO PUSH2 0x132 JUMPI PUSH1 0x40 MLOAD PUSH32 0x8C379A000000000000000000000000000000000000000000000000000000000 DUP2 MSTORE PUSH1 0x4 ADD PUSH2 0x129 SWAP1 PUSH2 0x47B JUMP JUMPDEST PUSH1 0x40 MLOAD DUP1 SWAP2 SUB SWAP1 REVERT JUMPDEST PUSH1 0x30 PUSH1 0x4 SLOAD GT ISZERO DUP1 ISZERO PUSH2 0x147 JUMPI POP PUSH1 0x0 PUSH1 0x5 SLOAD GT JUMPDEST DUP1 ISZERO PUSH2 0x155 JUMPI POP PUSH1 0x0 PUSH1 0x3 SLOAD GT JUMPDEST PUSH2 0x194 JUMPI PUSH1 0x40 MLOAD PUSH32 0x8C379A000000000000000000000000000000000000000000000000000000000 DUP2 MSTORE PUSH1 0x4 ADD PUSH2 0x18B SWAP1 PUSH2 0x50D JUMP JUMPDEST PUSH1 0x40 MLOAD DUP1 SWAP2 SUB SWAP1 REVERT JUMPDEST PUSH1 0x1 PUSH1 0x0 DUP1 PUSH2 0x100 EXP DUP2 SLOAD DUP2 PUSH1 0xFF MUL NOT AND SWAP1 DUP4 ISZERO ISZERO MUL OR SWAP1 SSTORE POP POP JUMP JUMPDEST JUMP JUMPDEST PUSH1 0x0 PUSH1 0x9 SLOAD PUSH1 0x4 SLOAD PUSH2 0x1C5 SWAP2 SWAP1 PUSH2 0x55C JUMP JUMPDEST PUSH1 0x6 DUP2 SWAP1 SSTORE POP PUSH1 0x6 SLOAD SWAP1 POP SWAP1 JUMP JUMPDEST PUSH1 0xA PUSH1 0x0 SWAP1 SLOAD SWAP1 PUSH2 0x100 EXP SWAP1 DIV PUSH20 0xFFFFFFFFFFFFFFFFFFFFFFFFFFFFFFFFFFFFFFFF AND PUSH1 0x0 PUSH20 0xFFFFFFFFFFFFFFFFFFFFFFFFFFFFFFFFFFFFFFFF AND DUP2 PUSH20 0xFFFFFFFFFFFFFFFFFFFFFFFFFFFFFFFFFFFFFFFF AND EQ ISZERO PUSH2 0x266 JUMPI PUSH1 0x40 MLOAD PUSH32 0x8C379A000000000000000000000000000000000000000000000000000000000 DUP2 MSTORE PUSH1 0x4 ADD PUSH2 0x25D SWAP1 PUSH2 0x47B JUMP JUMPDEST PUSH1 0x40 MLOAD DUP1 SWAP2 SUB SWAP1 REVERT JUMPDEST PUSH1 0xA PUSH1 0x0 SWAP1 SLOAD SWAP1 PUSH2 0x100 EXP SWAP1 DIV PUSH20 0xFFFFFFFFFFFFFFFFFFFFFFFFFFFFFFFFFFFFFFFF AND PUSH1 0xA PUSH1 0x0 SWAP1 SLOAD SWAP1 PUSH2 0x100 EXP SWAP1 DIV PUSH20 0xFFFFFFFFFFFFFFFFFFFFFFFFFFFFFFFFFFFFFFFF AND PUSH20 0xFFFFFFFFFFFFFFFFFFFFFFFFFFFFFFFFFFFFFFFF AND DUP2 PUSH20 0xFFFFFFFFFFFFFFFFFFFFFFFFFFFFFFFFFFFFFFFF AND EQ PUSH2 0x2E3 JUMPI PUSH1 0x0 DUP1 REVERT JUMPDEST DUP6 PUSH1 0x4 DUP2 SWAP1 SSTORE POP DUP5 PUSH1 0x5 DUP2 SWAP1 SSTORE POP DUP4 PUSH1 0x0 PUSH1 0x1 PUSH2 0x100 EXP DUP2 SLOAD DUP2 PUSH1 0xFF MUL NOT AND SWAP1 DUP4 ISZERO ISZERO MUL OR SWAP1 SSTORE POP DUP3 PUSH1 0x1 DUP2 SWAP1 SSTORE POP POP POP POP POP POP POP JUMP JUMPDEST PUSH1 0x0 DUP2 SWAP1 POP SWAP2 SWAP1 POP JUMP JUMPDEST PUSH2 0x32D DUP2 PUSH2 0x31A JUMP JUMPDEST DUP3 MSTORE POP POP JUMP JUMPDEST PUSH1 0x0 PUSH1 0x20 DUP3 ADD SWAP1 POP PUSH2 0x348 PUSH1 0x0 DUP4 ADD DUP5 PUSH2 0x324 JUMP JUMPDEST SWAP3 SWAP2 POP POP JUMP JUMPDEST PUSH1 0x0 DUP1 REVERT JUMPDEST PUSH2 0x35C DUP2 PUSH2 0x31A JUMP JUMPDEST DUP2 EQ PUSH2 0x367 JUMPI PUSH1 0x0 DUP1 REVERT JUMPDEST POP JUMP JUMPDEST PUSH1 0x0 DUP2 CALLDATALOAD SWAP1 POP PUSH2 0x379 DUP2 PUSH2 0x353 JUMP JUMPDEST SWAP3 SWAP2 POP POP JUMP JUMPDEST PUSH1 0x0 DUP2 ISZERO ISZERO SWAP1 POP SWAP2 SWAP1 POP JUMP JUMPDEST PUSH2 0x394 DUP2 PUSH2 0x37F JUMP JUMPDEST DUP2 EQ PUSH2 0x39F JUMPI PUSH1 0x0 DUP1 REVERT JUMPDEST POP JUMP JUMPDEST PUSH1 0x0 DUP2 CALLDATALOAD SWAP1 POP PUSH2 0x3B1 DUP2 PUSH2 0x38B JUMP JUMPDEST SWAP3 SWAP2 POP POP JUMP JUMPDEST PUSH1 0x0 DUP1 PUSH1 0x0 DUP1 PUSH1 0x80 DUP6 DUP8 SUB SLT ISZERO PUSH2 0x3D1 JUMPI PUSH2 0x3D0 PUSH2 0x34E JUMP JUMPDEST JUMPDEST PUSH1 0x0 PUSH2 0x3DF DUP8 DUP3 DUP9 ADD PUSH2 0x36A JUMP JUMPDEST SWAP5 POP POP PUSH1 0x20 PUSH2 0x3F0 DUP8 DUP3 DUP9 ADD PUSH2 0x36A JUMP JUMPDEST SWAP4 POP POP PUSH1 0x40 PUSH2 0x401 DUP8 DUP3 DUP9 ADD PUSH2 0x3A2 JUMP JUMPDEST SWAP3 POP POP PUSH1 0x60 PUSH2 0x412 DUP8 DUP3 DUP9 ADD PUSH2 0x36A JUMP JUMPDEST SWAP2 POP POP SWAP3 SWAP6 SWAP2 SWAP5 POP SWAP3 POP JUMP JUMPDEST PUSH1 0x0 DUP3 DUP3 MSTORE PUSH1 0x20 DUP3 ADD SWAP1 POP SWAP3 SWAP2 POP POP JUMP JUMPDEST PUSH32 0x4E6F742076616C69642061646472657373000000000000000000000000000000 PUSH1 0x0 DUP3 ADD MSTORE POP JUMP JUMPDEST PUSH1 0x0 PUSH2 0x465 PUSH1 0x11 DUP4 PUSH2 0x41E JUMP JUMPDEST SWAP2 POP PUSH2 0x470 DUP3 PUSH2 0x42F JUMP JUMPDEST PUSH1 0x20 DUP3 ADD SWAP1 POP SWAP2 SWAP1 POP JUMP JUMPDEST PUSH1 0x0 PUSH1 0x20 DUP3 ADD SWAP1 POP DUP2 DUP2 SUB PUSH1 0x0 DUP4 ADD MSTORE PUSH2 0x494 DUP2 PUSH2 0x458 JUMP JUMPDEST SWAP1 POP SWAP2 SWAP1 POP JUMP JUMPDEST PUSH32 0x4174206C65617374206F6E652070617274206F6620796F75722061756374696F PUSH1 0x0 DUP3 ADD MSTORE PUSH32 0x6E20697320696E636F72726563742E0000000000000000000000000000000000 PUSH1 0x20 DUP3 ADD MSTORE POP JUMP JUMPDEST PUSH1 0x0 PUSH2 0x4F7 PUSH1 0x2F DUP4 PUSH2 0x41E JUMP JUMPDEST SWAP2 POP PUSH2 0x502 DUP3 PUSH2 0x49B JUMP JUMPDEST PUSH1 0x40 DUP3 ADD SWAP1 POP SWAP2 SWAP1 POP JUMP JUMPDEST PUSH1 0x0 PUSH1 0x20 DUP3 ADD SWAP1 POP DUP2 DUP2 SUB PUSH1 0x0 DUP4 ADD MSTORE PUSH2 0x526 DUP2 PUSH2 0x4EA JUMP JUMPDEST SWAP1 POP SWAP2 SWAP1 POP JUMP JUMPDEST PUSH32 0x4E487B7100000000000000000000000000000000000000000000000000000000 PUSH1 0x0 MSTORE PUSH1 0x12 PUSH1 0x4 MSTORE PUSH1 0x24 PUSH1 0x0 REVERT JUMPDEST PUSH1 0x0 PUSH2 0x567 DUP3 PUSH2 0x31A JUMP JUMPDEST SWAP2 POP PUSH2 0x572 DUP4 PUSH2 0x31A JUMP JUMPDEST SWAP3 POP DUP3 PUSH2 0x582 JUMPI PUSH2 0x581 PUSH2 0x52D JUMP JUMPDEST JUMPDEST DUP3 DUP3 DIV SWAP1 POP SWAP3 SWAP2 POP POP JUMP INVALID LOG2 PUSH5 0x6970667358 0x22 SLT KECCAK256 0xF7 BLOCKHASH AND MOD 0xA7 PUSH20 0x13E641BBBEF768C1199AE8BF675D7F248424BC7C LOG1 0x4A 0x2C MSIZE DUP16 PC PUSH5 0x736F6C6343 STOP ADDMOD EXP STOP CALLER "
		},
		"gasEstimates": {
			"creation": {
				"codeDepositCost": "295000",
				"executionCost": "24603",
				"totalCost": "319603"
			},
			"external": {
				"calculateAuctionFee()": "infinite",
				"prepareAuction()": "32956",
				"sendNFTToBidder()": "144",
				"setUpAuction(uint256,uint256,bool,uint256)": "infinite"
			}
		},
		"methodIdentifiers": {
			"calculateAuctionFee()": "954fa1c3",
			"prepareAuction()": "0ecca7b5",
			"sendNFTToBidder()": "40a9fa2d",
			"setUpAuction(uint256,uint256,bool,uint256)": "dfef0306"
		}
	},
	"abi": [
		{
			"inputs": [],
			"stateMutability": "nonpayable",
			"type": "constructor"
		},
		{
			"inputs": [],
			"name": "calculateAuctionFee",
			"outputs": [
				{
					"internalType": "uint256",
					"name": "",
					"type": "uint256"
				}
			],
			"stateMutability": "nonpayable",
			"type": "function"
		},
		{
			"inputs": [],
			"name": "prepareAuction",
			"outputs": [],
			"stateMutability": "nonpayable",
			"type": "function"
		},
		{
			"inputs": [],
			"name": "sendNFTToBidder",
			"outputs": [],
			"stateMutability": "nonpayable",
			"type": "function"
		},
		{
			"inputs": [
				{
					"internalType": "uint256",
					"name": "time",
					"type": "uint256"
				},
				{
					"internalType": "uint256",
					"name": "minBid",
					"type": "uint256"
				},
				{
					"internalType": "bool",
					"name": "hasBuyNow",
					"type": "bool"
				},
				{
					"internalType": "uint256",
					"name": "buyNow",
					"type": "uint256"
				}
			],
			"name": "setUpAuction",
			"outputs": [],
			"stateMutability": "nonpayable",
			"type": "function"
		}
	]
}