{
	"data": {
		"bytecode": {
			"linkReferences": {},
			"object": "6080604052600060085560006009556000600b60006101000a81548173ffffffffffffffffffffffffffffffffffffffff021916908373ffffffffffffffffffffffffffffffffffffffff16021790555034801561005c57600080fd5b5033600a60006101000a81548173ffffffffffffffffffffffffffffffffffffffff021916908373ffffffffffffffffffffffffffffffffffffffff160217905550610fcf806100ad6000396000f3fe60806040526004361061011f5760003560e01c8063954fa1c3116100a0578063c8e7b31d11610064578063c8e7b31d14610372578063c9c8cba81461039d578063d3a86386146103c6578063d6fbf202146103f1578063f040c8741461041c5761011f565b8063954fa1c31461029b5780639c3962f0146102c65780639d1b464a146102f1578063a6b513ee1461031c578063c6bc5182146103475761011f565b806333410630116100e757806333410630146101e7578063473ca96c1461021057806347ccca021461021a5780635ecbdce9146102455780638dbf997c146102705761011f565b806301333f061461012457806308551a531461014f5780630ecca7b51461017a57806314525b6b14610191578063289d1ae3146101bc575b600080fd5b34801561013057600080fd5b50610139610447565b6040516101469190610a74565b60405180910390f35b34801561015b57600080fd5b5061016461046d565b6040516101719190610ab0565b60405180910390f35b34801561018657600080fd5b5061018f610493565b005b34801561019d57600080fd5b506101a6610596565b6040516101b39190610ae4565b60405180910390f35b3480156101c857600080fd5b506101d161059c565b6040516101de9190610b1a565b60405180910390f35b3480156101f357600080fd5b5061020e60048036038101906102099190610bbe565b6105af565b005b610218610785565b005b34801561022657600080fd5b5061022f6108f0565b60405161023c9190610caa565b60405180910390f35b34801561025157600080fd5b5061025a610916565b6040516102679190610ae4565b60405180910390f35b34801561027c57600080fd5b5061028561091c565b6040516102929190610ae4565b60405180910390f35b3480156102a757600080fd5b506102b0610922565b6040516102bd9190610ae4565b60405180910390f35b3480156102d257600080fd5b506102db610942565b6040516102e89190610ae4565b60405180910390f35b3480156102fd57600080fd5b50610306610948565b6040516103139190610ae4565b60405180910390f35b34801561032857600080fd5b5061033161094e565b60405161033e9190610ae4565b60405180910390f35b34801561035357600080fd5b5061035c610954565b6040516103699190610ae4565b60405180910390f35b34801561037e57600080fd5b5061038761095a565b6040516103949190610ae4565b60405180910390f35b3480156103a957600080fd5b506103c460048036038101906103bf9190610cc5565b610960565b005b3480156103d257600080fd5b506103db610a16565b6040516103e89190610ae4565b60405180910390f35b3480156103fd57600080fd5b50610406610a1c565b6040516104139190610ae4565b60405180910390f35b34801561042857600080fd5b50610431610a22565b60405161043e9190610b1a565b60405180910390f35b600b60009054906101000a900473ffffffffffffffffffffffffffffffffffffffff1681565b600a60009054906101000a900473ffffffffffffffffffffffffffffffffffffffff1681565b600a60009054906101000a900473ffffffffffffffffffffffffffffffffffffffff16600073ffffffffffffffffffffffffffffffffffffffff168173ffffffffffffffffffffffffffffffffffffffff161415610526576040517f08c379a000000000000000000000000000000000000000000000000000000000815260040161051d90610d4f565b60405180910390fd5b600060055411801561053a57506000600354115b610579576040517f08c379a000000000000000000000000000000000000000000000000000000000815260040161057090610de1565b60405180910390fd5b60016000806101000a81548160ff02191690831515021790555050565b60065481565b600060019054906101000a900460ff1681565b600a60009054906101000a900473ffffffffffffffffffffffffffffffffffffffff16600073ffffffffffffffffffffffffffffffffffffffff168173ffffffffffffffffffffffffffffffffffffffff161415610642576040517f08c379a000000000000000000000000000000000000000000000000000000000815260040161063990610d4f565b60405180910390fd5b600a60009054906101000a900473ffffffffffffffffffffffffffffffffffffffff16600a60009054906101000a900473ffffffffffffffffffffffffffffffffffffffff1673ffffffffffffffffffffffffffffffffffffffff168173ffffffffffffffffffffffffffffffffffffffff16146106bf57600080fd5b600060035411610704576040517f08c379a00000000000000000000000000000000000000000000000000000000081526004016106fb90610e4d565b60405180910390fd5b876004819055508660058190555085600060016101000a81548160ff0219169083151502179055508460018190555083600d60006101000a81548173ffffffffffffffffffffffffffffffffffffffff021916908373ffffffffffffffffffffffffffffffffffffffff16021790555082600c819055505050505050505050565b600073ffffffffffffffffffffffffffffffffffffffff16600b60009054906101000a900473ffffffffffffffffffffffffffffffffffffffff1673ffffffffffffffffffffffffffffffffffffffff161461089157600d60009054906101000a900473ffffffffffffffffffffffffffffffffffffffff1673ffffffffffffffffffffffffffffffffffffffff166342842e0e30600b60009054906101000a900473ffffffffffffffffffffffffffffffffffffffff16600c546040518463ffffffff1660e01b815260040161085e93929190610e6d565b600060405180830381600087803b15801561087857600080fd5b505af115801561088c573d6000803e3d6000fd5b505050505b7f6747c18256028de8cd2fa276e75d6b4193ac34c1b55fa8e71797ac132d32ad39600b60009054906101000a900473ffffffffffffffffffffffffffffffffffffffff166009546040516108e6929190610ea4565b60405180910390a1565b600d60009054906101000a900473ffffffffffffffffffffffffffffffffffffffff1681565b60015481565b60075481565b60006008546004546109349190610efc565b600681905550600654905090565b60025481565b60095481565b60085481565b600c5481565b60045481565b6009548110156109a5576040517f08c379a000000000000000000000000000000000000000000000000000000000815260040161099c90610f79565b60405180910390fd5b6001548114156109ca57600060048190555080600981905550806008819055506109d2565b806009819055505b33600b60006101000a81548173ffffffffffffffffffffffffffffffffffffffff021916908373ffffffffffffffffffffffffffffffffffffffff16021790555050565b60055481565b60035481565b60008054906101000a900460ff1681565b600073ffffffffffffffffffffffffffffffffffffffff82169050919050565b6000610a5e82610a33565b9050919050565b610a6e81610a53565b82525050565b6000602082019050610a896000830184610a65565b92915050565b6000610a9a82610a33565b9050919050565b610aaa81610a8f565b82525050565b6000602082019050610ac56000830184610aa1565b92915050565b6000819050919050565b610ade81610acb565b82525050565b6000602082019050610af96000830184610ad5565b92915050565b60008115159050919050565b610b1481610aff565b82525050565b6000602082019050610b2f6000830184610b0b565b92915050565b600080fd5b610b4381610acb565b8114610b4e57600080fd5b50565b600081359050610b6081610b3a565b92915050565b610b6f81610aff565b8114610b7a57600080fd5b50565b600081359050610b8c81610b66565b92915050565b610b9b81610a53565b8114610ba657600080fd5b50565b600081359050610bb881610b92565b92915050565b60008060008060008060c08789031215610bdb57610bda610b35565b5b6000610be989828a01610b51565b9650506020610bfa89828a01610b51565b9550506040610c0b89828a01610b7d565b9450506060610c1c89828a01610b51565b9350506080610c2d89828a01610ba9565b92505060a0610c3e89828a01610b51565b9150509295509295509295565b6000819050919050565b6000610c70610c6b610c6684610a33565b610c4b565b610a33565b9050919050565b6000610c8282610c55565b9050919050565b6000610c9482610c77565b9050919050565b610ca481610c89565b82525050565b6000602082019050610cbf6000830184610c9b565b92915050565b600060208284031215610cdb57610cda610b35565b5b6000610ce984828501610b51565b91505092915050565b600082825260208201905092915050565b7f4e6f742076616c69642061646472657373000000000000000000000000000000600082015250565b6000610d39601183610cf2565b9150610d4482610d03565b602082019050919050565b60006020820190508181036000830152610d6881610d2c565b9050919050565b7f4174206c65617374206f6e652070617274206f6620796f75722061756374696f60008201527f6e20697320696e636f72726563742e0000000000000000000000000000000000602082015250565b6000610dcb602f83610cf2565b9150610dd682610d6f565b604082019050919050565b60006020820190508181036000830152610dfa81610dbe565b9050919050565b7f41756374696f6e206d757374206265206c6f6e67657200000000000000000000600082015250565b6000610e37601683610cf2565b9150610e4282610e01565b602082019050919050565b60006020820190508181036000830152610e6681610e2a565b9050919050565b6000606082019050610e826000830186610a65565b610e8f6020830185610a65565b610e9c6040830184610ad5565b949350505050565b6000604082019050610eb96000830185610a65565b610ec66020830184610ad5565b9392505050565b7f4e487b7100000000000000000000000000000000000000000000000000000000600052601260045260246000fd5b6000610f0782610acb565b9150610f1283610acb565b925082610f2257610f21610ecd565b5b828204905092915050565b7f42696420697320746f6f206c6f77000000000000000000000000000000000000600082015250565b6000610f63600e83610cf2565b9150610f6e82610f2d565b602082019050919050565b60006020820190508181036000830152610f9281610f56565b905091905056fea2646970667358221220173b5c649cd1908c23995eb64bb71fbc0fd68f9bba56b9df1edce8d9d5dae82864736f6c634300080a0033",
			"opcodes": "PUSH1 0x80 PUSH1 0x40 MSTORE PUSH1 0x0 PUSH1 0x8 SSTORE PUSH1 0x0 PUSH1 0x9 SSTORE PUSH1 0x0 PUSH1 0xB PUSH1 0x0 PUSH2 0x100 EXP DUP2 SLOAD DUP2 PUSH20 0xFFFFFFFFFFFFFFFFFFFFFFFFFFFFFFFFFFFFFFFF MUL NOT AND SWAP1 DUP4 PUSH20 0xFFFFFFFFFFFFFFFFFFFFFFFFFFFFFFFFFFFFFFFF AND MUL OR SWAP1 SSTORE POP CALLVALUE DUP1 ISZERO PUSH2 0x5C JUMPI PUSH1 0x0 DUP1 REVERT JUMPDEST POP CALLER PUSH1 0xA PUSH1 0x0 PUSH2 0x100 EXP DUP2 SLOAD DUP2 PUSH20 0xFFFFFFFFFFFFFFFFFFFFFFFFFFFFFFFFFFFFFFFF MUL NOT AND SWAP1 DUP4 PUSH20 0xFFFFFFFFFFFFFFFFFFFFFFFFFFFFFFFFFFFFFFFF AND MUL OR SWAP1 SSTORE POP PUSH2 0xFCF DUP1 PUSH2 0xAD PUSH1 0x0 CODECOPY PUSH1 0x0 RETURN INVALID PUSH1 0x80 PUSH1 0x40 MSTORE PUSH1 0x4 CALLDATASIZE LT PUSH2 0x11F JUMPI PUSH1 0x0 CALLDATALOAD PUSH1 0xE0 SHR DUP1 PUSH4 0x954FA1C3 GT PUSH2 0xA0 JUMPI DUP1 PUSH4 0xC8E7B31D GT PUSH2 0x64 JUMPI DUP1 PUSH4 0xC8E7B31D EQ PUSH2 0x372 JUMPI DUP1 PUSH4 0xC9C8CBA8 EQ PUSH2 0x39D JUMPI DUP1 PUSH4 0xD3A86386 EQ PUSH2 0x3C6 JUMPI DUP1 PUSH4 0xD6FBF202 EQ PUSH2 0x3F1 JUMPI DUP1 PUSH4 0xF040C874 EQ PUSH2 0x41C JUMPI PUSH2 0x11F JUMP JUMPDEST DUP1 PUSH4 0x954FA1C3 EQ PUSH2 0x29B JUMPI DUP1 PUSH4 0x9C3962F0 EQ PUSH2 0x2C6 JUMPI DUP1 PUSH4 0x9D1B464A EQ PUSH2 0x2F1 JUMPI DUP1 PUSH4 0xA6B513EE EQ PUSH2 0x31C JUMPI DUP1 PUSH4 0xC6BC5182 EQ PUSH2 0x347 JUMPI PUSH2 0x11F JUMP JUMPDEST DUP1 PUSH4 0x33410630 GT PUSH2 0xE7 JUMPI DUP1 PUSH4 0x33410630 EQ PUSH2 0x1E7 JUMPI DUP1 PUSH4 0x473CA96C EQ PUSH2 0x210 JUMPI DUP1 PUSH4 0x47CCCA02 EQ PUSH2 0x21A JUMPI DUP1 PUSH4 0x5ECBDCE9 EQ PUSH2 0x245 JUMPI DUP1 PUSH4 0x8DBF997C EQ PUSH2 0x270 JUMPI PUSH2 0x11F JUMP JUMPDEST DUP1 PUSH4 0x1333F06 EQ PUSH2 0x124 JUMPI DUP1 PUSH4 0x8551A53 EQ PUSH2 0x14F JUMPI DUP1 PUSH4 0xECCA7B5 EQ PUSH2 0x17A JUMPI DUP1 PUSH4 0x14525B6B EQ PUSH2 0x191 JUMPI DUP1 PUSH4 0x289D1AE3 EQ PUSH2 0x1BC JUMPI JUMPDEST PUSH1 0x0 DUP1 REVERT JUMPDEST CALLVALUE DUP1 ISZERO PUSH2 0x130 JUMPI PUSH1 0x0 DUP1 REVERT JUMPDEST POP PUSH2 0x139 PUSH2 0x447 JUMP JUMPDEST PUSH1 0x40 MLOAD PUSH2 0x146 SWAP2 SWAP1 PUSH2 0xA74 JUMP JUMPDEST PUSH1 0x40 MLOAD DUP1 SWAP2 SUB SWAP1 RETURN JUMPDEST CALLVALUE DUP1 ISZERO PUSH2 0x15B JUMPI PUSH1 0x0 DUP1 REVERT JUMPDEST POP PUSH2 0x164 PUSH2 0x46D JUMP JUMPDEST PUSH1 0x40 MLOAD PUSH2 0x171 SWAP2 SWAP1 PUSH2 0xAB0 JUMP JUMPDEST PUSH1 0x40 MLOAD DUP1 SWAP2 SUB SWAP1 RETURN JUMPDEST CALLVALUE DUP1 ISZERO PUSH2 0x186 JUMPI PUSH1 0x0 DUP1 REVERT JUMPDEST POP PUSH2 0x18F PUSH2 0x493 JUMP JUMPDEST STOP JUMPDEST CALLVALUE DUP1 ISZERO PUSH2 0x19D JUMPI PUSH1 0x0 DUP1 REVERT JUMPDEST POP PUSH2 0x1A6 PUSH2 0x596 JUMP JUMPDEST PUSH1 0x40 MLOAD PUSH2 0x1B3 SWAP2 SWAP1 PUSH2 0xAE4 JUMP JUMPDEST PUSH1 0x40 MLOAD DUP1 SWAP2 SUB SWAP1 RETURN JUMPDEST CALLVALUE DUP1 ISZERO PUSH2 0x1C8 JUMPI PUSH1 0x0 DUP1 REVERT JUMPDEST POP PUSH2 0x1D1 PUSH2 0x59C JUMP JUMPDEST PUSH1 0x40 MLOAD PUSH2 0x1DE SWAP2 SWAP1 PUSH2 0xB1A JUMP JUMPDEST PUSH1 0x40 MLOAD DUP1 SWAP2 SUB SWAP1 RETURN JUMPDEST CALLVALUE DUP1 ISZERO PUSH2 0x1F3 JUMPI PUSH1 0x0 DUP1 REVERT JUMPDEST POP PUSH2 0x20E PUSH1 0x4 DUP1 CALLDATASIZE SUB DUP2 ADD SWAP1 PUSH2 0x209 SWAP2 SWAP1 PUSH2 0xBBE JUMP JUMPDEST PUSH2 0x5AF JUMP JUMPDEST STOP JUMPDEST PUSH2 0x218 PUSH2 0x785 JUMP JUMPDEST STOP JUMPDEST CALLVALUE DUP1 ISZERO PUSH2 0x226 JUMPI PUSH1 0x0 DUP1 REVERT JUMPDEST POP PUSH2 0x22F PUSH2 0x8F0 JUMP JUMPDEST PUSH1 0x40 MLOAD PUSH2 0x23C SWAP2 SWAP1 PUSH2 0xCAA JUMP JUMPDEST PUSH1 0x40 MLOAD DUP1 SWAP2 SUB SWAP1 RETURN JUMPDEST CALLVALUE DUP1 ISZERO PUSH2 0x251 JUMPI PUSH1 0x0 DUP1 REVERT JUMPDEST POP PUSH2 0x25A PUSH2 0x916 JUMP JUMPDEST PUSH1 0x40 MLOAD PUSH2 0x267 SWAP2 SWAP1 PUSH2 0xAE4 JUMP JUMPDEST PUSH1 0x40 MLOAD DUP1 SWAP2 SUB SWAP1 RETURN JUMPDEST CALLVALUE DUP1 ISZERO PUSH2 0x27C JUMPI PUSH1 0x0 DUP1 REVERT JUMPDEST POP PUSH2 0x285 PUSH2 0x91C JUMP JUMPDEST PUSH1 0x40 MLOAD PUSH2 0x292 SWAP2 SWAP1 PUSH2 0xAE4 JUMP JUMPDEST PUSH1 0x40 MLOAD DUP1 SWAP2 SUB SWAP1 RETURN JUMPDEST CALLVALUE DUP1 ISZERO PUSH2 0x2A7 JUMPI PUSH1 0x0 DUP1 REVERT JUMPDEST POP PUSH2 0x2B0 PUSH2 0x922 JUMP JUMPDEST PUSH1 0x40 MLOAD PUSH2 0x2BD SWAP2 SWAP1 PUSH2 0xAE4 JUMP JUMPDEST PUSH1 0x40 MLOAD DUP1 SWAP2 SUB SWAP1 RETURN JUMPDEST CALLVALUE DUP1 ISZERO PUSH2 0x2D2 JUMPI PUSH1 0x0 DUP1 REVERT JUMPDEST POP PUSH2 0x2DB PUSH2 0x942 JUMP JUMPDEST PUSH1 0x40 MLOAD PUSH2 0x2E8 SWAP2 SWAP1 PUSH2 0xAE4 JUMP JUMPDEST PUSH1 0x40 MLOAD DUP1 SWAP2 SUB SWAP1 RETURN JUMPDEST CALLVALUE DUP1 ISZERO PUSH2 0x2FD JUMPI PUSH1 0x0 DUP1 REVERT JUMPDEST POP PUSH2 0x306 PUSH2 0x948 JUMP JUMPDEST PUSH1 0x40 MLOAD PUSH2 0x313 SWAP2 SWAP1 PUSH2 0xAE4 JUMP JUMPDEST PUSH1 0x40 MLOAD DUP1 SWAP2 SUB SWAP1 RETURN JUMPDEST CALLVALUE DUP1 ISZERO PUSH2 0x328 JUMPI PUSH1 0x0 DUP1 REVERT JUMPDEST POP PUSH2 0x331 PUSH2 0x94E JUMP JUMPDEST PUSH1 0x40 MLOAD PUSH2 0x33E SWAP2 SWAP1 PUSH2 0xAE4 JUMP JUMPDEST PUSH1 0x40 MLOAD DUP1 SWAP2 SUB SWAP1 RETURN JUMPDEST CALLVALUE DUP1 ISZERO PUSH2 0x353 JUMPI PUSH1 0x0 DUP1 REVERT JUMPDEST POP PUSH2 0x35C PUSH2 0x954 JUMP JUMPDEST PUSH1 0x40 MLOAD PUSH2 0x369 SWAP2 SWAP1 PUSH2 0xAE4 JUMP JUMPDEST PUSH1 0x40 MLOAD DUP1 SWAP2 SUB SWAP1 RETURN JUMPDEST CALLVALUE DUP1 ISZERO PUSH2 0x37E JUMPI PUSH1 0x0 DUP1 REVERT JUMPDEST POP PUSH2 0x387 PUSH2 0x95A JUMP JUMPDEST PUSH1 0x40 MLOAD PUSH2 0x394 SWAP2 SWAP1 PUSH2 0xAE4 JUMP JUMPDEST PUSH1 0x40 MLOAD DUP1 SWAP2 SUB SWAP1 RETURN JUMPDEST CALLVALUE DUP1 ISZERO PUSH2 0x3A9 JUMPI PUSH1 0x0 DUP1 REVERT JUMPDEST POP PUSH2 0x3C4 PUSH1 0x4 DUP1 CALLDATASIZE SUB DUP2 ADD SWAP1 PUSH2 0x3BF SWAP2 SWAP1 PUSH2 0xCC5 JUMP JUMPDEST PUSH2 0x960 JUMP JUMPDEST STOP JUMPDEST CALLVALUE DUP1 ISZERO PUSH2 0x3D2 JUMPI PUSH1 0x0 DUP1 REVERT JUMPDEST POP PUSH2 0x3DB PUSH2 0xA16 JUMP JUMPDEST PUSH1 0x40 MLOAD PUSH2 0x3E8 SWAP2 SWAP1 PUSH2 0xAE4 JUMP JUMPDEST PUSH1 0x40 MLOAD DUP1 SWAP2 SUB SWAP1 RETURN JUMPDEST CALLVALUE DUP1 ISZERO PUSH2 0x3FD JUMPI PUSH1 0x0 DUP1 REVERT JUMPDEST POP PUSH2 0x406 PUSH2 0xA1C JUMP JUMPDEST PUSH1 0x40 MLOAD PUSH2 0x413 SWAP2 SWAP1 PUSH2 0xAE4 JUMP JUMPDEST PUSH1 0x40 MLOAD DUP1 SWAP2 SUB SWAP1 RETURN JUMPDEST CALLVALUE DUP1 ISZERO PUSH2 0x428 JUMPI PUSH1 0x0 DUP1 REVERT JUMPDEST POP PUSH2 0x431 PUSH2 0xA22 JUMP JUMPDEST PUSH1 0x40 MLOAD PUSH2 0x43E SWAP2 SWAP1 PUSH2 0xB1A JUMP JUMPDEST PUSH1 0x40 MLOAD DUP1 SWAP2 SUB SWAP1 RETURN JUMPDEST PUSH1 0xB PUSH1 0x0 SWAP1 SLOAD SWAP1 PUSH2 0x100 EXP SWAP1 DIV PUSH20 0xFFFFFFFFFFFFFFFFFFFFFFFFFFFFFFFFFFFFFFFF AND DUP2 JUMP JUMPDEST PUSH1 0xA PUSH1 0x0 SWAP1 SLOAD SWAP1 PUSH2 0x100 EXP SWAP1 DIV PUSH20 0xFFFFFFFFFFFFFFFFFFFFFFFFFFFFFFFFFFFFFFFF AND DUP2 JUMP JUMPDEST PUSH1 0xA PUSH1 0x0 SWAP1 SLOAD SWAP1 PUSH2 0x100 EXP SWAP1 DIV PUSH20 0xFFFFFFFFFFFFFFFFFFFFFFFFFFFFFFFFFFFFFFFF AND PUSH1 0x0 PUSH20 0xFFFFFFFFFFFFFFFFFFFFFFFFFFFFFFFFFFFFFFFF AND DUP2 PUSH20 0xFFFFFFFFFFFFFFFFFFFFFFFFFFFFFFFFFFFFFFFF AND EQ ISZERO PUSH2 0x526 JUMPI PUSH1 0x40 MLOAD PUSH32 0x8C379A000000000000000000000000000000000000000000000000000000000 DUP2 MSTORE PUSH1 0x4 ADD PUSH2 0x51D SWAP1 PUSH2 0xD4F JUMP JUMPDEST PUSH1 0x40 MLOAD DUP1 SWAP2 SUB SWAP1 REVERT JUMPDEST PUSH1 0x0 PUSH1 0x5 SLOAD GT DUP1 ISZERO PUSH2 0x53A JUMPI POP PUSH1 0x0 PUSH1 0x3 SLOAD GT JUMPDEST PUSH2 0x579 JUMPI PUSH1 0x40 MLOAD PUSH32 0x8C379A000000000000000000000000000000000000000000000000000000000 DUP2 MSTORE PUSH1 0x4 ADD PUSH2 0x570 SWAP1 PUSH2 0xDE1 JUMP JUMPDEST PUSH1 0x40 MLOAD DUP1 SWAP2 SUB SWAP1 REVERT JUMPDEST PUSH1 0x1 PUSH1 0x0 DUP1 PUSH2 0x100 EXP DUP2 SLOAD DUP2 PUSH1 0xFF MUL NOT AND SWAP1 DUP4 ISZERO ISZERO MUL OR SWAP1 SSTORE POP POP JUMP JUMPDEST PUSH1 0x6 SLOAD DUP2 JUMP JUMPDEST PUSH1 0x0 PUSH1 0x1 SWAP1 SLOAD SWAP1 PUSH2 0x100 EXP SWAP1 DIV PUSH1 0xFF AND DUP2 JUMP JUMPDEST PUSH1 0xA PUSH1 0x0 SWAP1 SLOAD SWAP1 PUSH2 0x100 EXP SWAP1 DIV PUSH20 0xFFFFFFFFFFFFFFFFFFFFFFFFFFFFFFFFFFFFFFFF AND PUSH1 0x0 PUSH20 0xFFFFFFFFFFFFFFFFFFFFFFFFFFFFFFFFFFFFFFFF AND DUP2 PUSH20 0xFFFFFFFFFFFFFFFFFFFFFFFFFFFFFFFFFFFFFFFF AND EQ ISZERO PUSH2 0x642 JUMPI PUSH1 0x40 MLOAD PUSH32 0x8C379A000000000000000000000000000000000000000000000000000000000 DUP2 MSTORE PUSH1 0x4 ADD PUSH2 0x639 SWAP1 PUSH2 0xD4F JUMP JUMPDEST PUSH1 0x40 MLOAD DUP1 SWAP2 SUB SWAP1 REVERT JUMPDEST PUSH1 0xA PUSH1 0x0 SWAP1 SLOAD SWAP1 PUSH2 0x100 EXP SWAP1 DIV PUSH20 0xFFFFFFFFFFFFFFFFFFFFFFFFFFFFFFFFFFFFFFFF AND PUSH1 0xA PUSH1 0x0 SWAP1 SLOAD SWAP1 PUSH2 0x100 EXP SWAP1 DIV PUSH20 0xFFFFFFFFFFFFFFFFFFFFFFFFFFFFFFFFFFFFFFFF AND PUSH20 0xFFFFFFFFFFFFFFFFFFFFFFFFFFFFFFFFFFFFFFFF AND DUP2 PUSH20 0xFFFFFFFFFFFFFFFFFFFFFFFFFFFFFFFFFFFFFFFF AND EQ PUSH2 0x6BF JUMPI PUSH1 0x0 DUP1 REVERT JUMPDEST PUSH1 0x0 PUSH1 0x3 SLOAD GT PUSH2 0x704 JUMPI PUSH1 0x40 MLOAD PUSH32 0x8C379A000000000000000000000000000000000000000000000000000000000 DUP2 MSTORE PUSH1 0x4 ADD PUSH2 0x6FB SWAP1 PUSH2 0xE4D JUMP JUMPDEST PUSH1 0x40 MLOAD DUP1 SWAP2 SUB SWAP1 REVERT JUMPDEST DUP8 PUSH1 0x4 DUP2 SWAP1 SSTORE POP DUP7 PUSH1 0x5 DUP2 SWAP1 SSTORE POP DUP6 PUSH1 0x0 PUSH1 0x1 PUSH2 0x100 EXP DUP2 SLOAD DUP2 PUSH1 0xFF MUL NOT AND SWAP1 DUP4 ISZERO ISZERO MUL OR SWAP1 SSTORE POP DUP5 PUSH1 0x1 DUP2 SWAP1 SSTORE POP DUP4 PUSH1 0xD PUSH1 0x0 PUSH2 0x100 EXP DUP2 SLOAD DUP2 PUSH20 0xFFFFFFFFFFFFFFFFFFFFFFFFFFFFFFFFFFFFFFFF MUL NOT AND SWAP1 DUP4 PUSH20 0xFFFFFFFFFFFFFFFFFFFFFFFFFFFFFFFFFFFFFFFF AND MUL OR SWAP1 SSTORE POP DUP3 PUSH1 0xC DUP2 SWAP1 SSTORE POP POP POP POP POP POP POP POP POP JUMP JUMPDEST PUSH1 0x0 PUSH20 0xFFFFFFFFFFFFFFFFFFFFFFFFFFFFFFFFFFFFFFFF AND PUSH1 0xB PUSH1 0x0 SWAP1 SLOAD SWAP1 PUSH2 0x100 EXP SWAP1 DIV PUSH20 0xFFFFFFFFFFFFFFFFFFFFFFFFFFFFFFFFFFFFFFFF AND PUSH20 0xFFFFFFFFFFFFFFFFFFFFFFFFFFFFFFFFFFFFFFFF AND EQ PUSH2 0x891 JUMPI PUSH1 0xD PUSH1 0x0 SWAP1 SLOAD SWAP1 PUSH2 0x100 EXP SWAP1 DIV PUSH20 0xFFFFFFFFFFFFFFFFFFFFFFFFFFFFFFFFFFFFFFFF AND PUSH20 0xFFFFFFFFFFFFFFFFFFFFFFFFFFFFFFFFFFFFFFFF AND PUSH4 0x42842E0E ADDRESS PUSH1 0xB PUSH1 0x0 SWAP1 SLOAD SWAP1 PUSH2 0x100 EXP SWAP1 DIV PUSH20 0xFFFFFFFFFFFFFFFFFFFFFFFFFFFFFFFFFFFFFFFF AND PUSH1 0xC SLOAD PUSH1 0x40 MLOAD DUP5 PUSH4 0xFFFFFFFF AND PUSH1 0xE0 SHL DUP2 MSTORE PUSH1 0x4 ADD PUSH2 0x85E SWAP4 SWAP3 SWAP2 SWAP1 PUSH2 0xE6D JUMP JUMPDEST PUSH1 0x0 PUSH1 0x40 MLOAD DUP1 DUP4 SUB DUP2 PUSH1 0x0 DUP8 DUP1 EXTCODESIZE ISZERO DUP1 ISZERO PUSH2 0x878 JUMPI PUSH1 0x0 DUP1 REVERT JUMPDEST POP GAS CALL ISZERO DUP1 ISZERO PUSH2 0x88C JUMPI RETURNDATASIZE PUSH1 0x0 DUP1 RETURNDATACOPY RETURNDATASIZE PUSH1 0x0 REVERT JUMPDEST POP POP POP POP JUMPDEST PUSH32 0x6747C18256028DE8CD2FA276E75D6B4193AC34C1B55FA8E71797AC132D32AD39 PUSH1 0xB PUSH1 0x0 SWAP1 SLOAD SWAP1 PUSH2 0x100 EXP SWAP1 DIV PUSH20 0xFFFFFFFFFFFFFFFFFFFFFFFFFFFFFFFFFFFFFFFF AND PUSH1 0x9 SLOAD PUSH1 0x40 MLOAD PUSH2 0x8E6 SWAP3 SWAP2 SWAP1 PUSH2 0xEA4 JUMP JUMPDEST PUSH1 0x40 MLOAD DUP1 SWAP2 SUB SWAP1 LOG1 JUMP JUMPDEST PUSH1 0xD PUSH1 0x0 SWAP1 SLOAD SWAP1 PUSH2 0x100 EXP SWAP1 DIV PUSH20 0xFFFFFFFFFFFFFFFFFFFFFFFFFFFFFFFFFFFFFFFF AND DUP2 JUMP JUMPDEST PUSH1 0x1 SLOAD DUP2 JUMP JUMPDEST PUSH1 0x7 SLOAD DUP2 JUMP JUMPDEST PUSH1 0x0 PUSH1 0x8 SLOAD PUSH1 0x4 SLOAD PUSH2 0x934 SWAP2 SWAP1 PUSH2 0xEFC JUMP JUMPDEST PUSH1 0x6 DUP2 SWAP1 SSTORE POP PUSH1 0x6 SLOAD SWAP1 POP SWAP1 JUMP JUMPDEST PUSH1 0x2 SLOAD DUP2 JUMP JUMPDEST PUSH1 0x9 SLOAD DUP2 JUMP JUMPDEST PUSH1 0x8 SLOAD DUP2 JUMP JUMPDEST PUSH1 0xC SLOAD DUP2 JUMP JUMPDEST PUSH1 0x4 SLOAD DUP2 JUMP JUMPDEST PUSH1 0x9 SLOAD DUP2 LT ISZERO PUSH2 0x9A5 JUMPI PUSH1 0x40 MLOAD PUSH32 0x8C379A000000000000000000000000000000000000000000000000000000000 DUP2 MSTORE PUSH1 0x4 ADD PUSH2 0x99C SWAP1 PUSH2 0xF79 JUMP JUMPDEST PUSH1 0x40 MLOAD DUP1 SWAP2 SUB SWAP1 REVERT JUMPDEST PUSH1 0x1 SLOAD DUP2 EQ ISZERO PUSH2 0x9CA JUMPI PUSH1 0x0 PUSH1 0x4 DUP2 SWAP1 SSTORE POP DUP1 PUSH1 0x9 DUP2 SWAP1 SSTORE POP DUP1 PUSH1 0x8 DUP2 SWAP1 SSTORE POP PUSH2 0x9D2 JUMP JUMPDEST DUP1 PUSH1 0x9 DUP2 SWAP1 SSTORE POP JUMPDEST CALLER PUSH1 0xB PUSH1 0x0 PUSH2 0x100 EXP DUP2 SLOAD DUP2 PUSH20 0xFFFFFFFFFFFFFFFFFFFFFFFFFFFFFFFFFFFFFFFF MUL NOT AND SWAP1 DUP4 PUSH20 0xFFFFFFFFFFFFFFFFFFFFFFFFFFFFFFFFFFFFFFFF AND MUL OR SWAP1 SSTORE POP POP JUMP JUMPDEST PUSH1 0x5 SLOAD DUP2 JUMP JUMPDEST PUSH1 0x3 SLOAD DUP2 JUMP JUMPDEST PUSH1 0x0 DUP1 SLOAD SWAP1 PUSH2 0x100 EXP SWAP1 DIV PUSH1 0xFF AND DUP2 JUMP JUMPDEST PUSH1 0x0 PUSH20 0xFFFFFFFFFFFFFFFFFFFFFFFFFFFFFFFFFFFFFFFF DUP3 AND SWAP1 POP SWAP2 SWAP1 POP JUMP JUMPDEST PUSH1 0x0 PUSH2 0xA5E DUP3 PUSH2 0xA33 JUMP JUMPDEST SWAP1 POP SWAP2 SWAP1 POP JUMP JUMPDEST PUSH2 0xA6E DUP2 PUSH2 0xA53 JUMP JUMPDEST DUP3 MSTORE POP POP JUMP JUMPDEST PUSH1 0x0 PUSH1 0x20 DUP3 ADD SWAP1 POP PUSH2 0xA89 PUSH1 0x0 DUP4 ADD DUP5 PUSH2 0xA65 JUMP JUMPDEST SWAP3 SWAP2 POP POP JUMP JUMPDEST PUSH1 0x0 PUSH2 0xA9A DUP3 PUSH2 0xA33 JUMP JUMPDEST SWAP1 POP SWAP2 SWAP1 POP JUMP JUMPDEST PUSH2 0xAAA DUP2 PUSH2 0xA8F JUMP JUMPDEST DUP3 MSTORE POP POP JUMP JUMPDEST PUSH1 0x0 PUSH1 0x20 DUP3 ADD SWAP1 POP PUSH2 0xAC5 PUSH1 0x0 DUP4 ADD DUP5 PUSH2 0xAA1 JUMP JUMPDEST SWAP3 SWAP2 POP POP JUMP JUMPDEST PUSH1 0x0 DUP2 SWAP1 POP SWAP2 SWAP1 POP JUMP JUMPDEST PUSH2 0xADE DUP2 PUSH2 0xACB JUMP JUMPDEST DUP3 MSTORE POP POP JUMP JUMPDEST PUSH1 0x0 PUSH1 0x20 DUP3 ADD SWAP1 POP PUSH2 0xAF9 PUSH1 0x0 DUP4 ADD DUP5 PUSH2 0xAD5 JUMP JUMPDEST SWAP3 SWAP2 POP POP JUMP JUMPDEST PUSH1 0x0 DUP2 ISZERO ISZERO SWAP1 POP SWAP2 SWAP1 POP JUMP JUMPDEST PUSH2 0xB14 DUP2 PUSH2 0xAFF JUMP JUMPDEST DUP3 MSTORE POP POP JUMP JUMPDEST PUSH1 0x0 PUSH1 0x20 DUP3 ADD SWAP1 POP PUSH2 0xB2F PUSH1 0x0 DUP4 ADD DUP5 PUSH2 0xB0B JUMP JUMPDEST SWAP3 SWAP2 POP POP JUMP JUMPDEST PUSH1 0x0 DUP1 REVERT JUMPDEST PUSH2 0xB43 DUP2 PUSH2 0xACB JUMP JUMPDEST DUP2 EQ PUSH2 0xB4E JUMPI PUSH1 0x0 DUP1 REVERT JUMPDEST POP JUMP JUMPDEST PUSH1 0x0 DUP2 CALLDATALOAD SWAP1 POP PUSH2 0xB60 DUP2 PUSH2 0xB3A JUMP JUMPDEST SWAP3 SWAP2 POP POP JUMP JUMPDEST PUSH2 0xB6F DUP2 PUSH2 0xAFF JUMP JUMPDEST DUP2 EQ PUSH2 0xB7A JUMPI PUSH1 0x0 DUP1 REVERT JUMPDEST POP JUMP JUMPDEST PUSH1 0x0 DUP2 CALLDATALOAD SWAP1 POP PUSH2 0xB8C DUP2 PUSH2 0xB66 JUMP JUMPDEST SWAP3 SWAP2 POP POP JUMP JUMPDEST PUSH2 0xB9B DUP2 PUSH2 0xA53 JUMP JUMPDEST DUP2 EQ PUSH2 0xBA6 JUMPI PUSH1 0x0 DUP1 REVERT JUMPDEST POP JUMP JUMPDEST PUSH1 0x0 DUP2 CALLDATALOAD SWAP1 POP PUSH2 0xBB8 DUP2 PUSH2 0xB92 JUMP JUMPDEST SWAP3 SWAP2 POP POP JUMP JUMPDEST PUSH1 0x0 DUP1 PUSH1 0x0 DUP1 PUSH1 0x0 DUP1 PUSH1 0xC0 DUP8 DUP10 SUB SLT ISZERO PUSH2 0xBDB JUMPI PUSH2 0xBDA PUSH2 0xB35 JUMP JUMPDEST JUMPDEST PUSH1 0x0 PUSH2 0xBE9 DUP10 DUP3 DUP11 ADD PUSH2 0xB51 JUMP JUMPDEST SWAP7 POP POP PUSH1 0x20 PUSH2 0xBFA DUP10 DUP3 DUP11 ADD PUSH2 0xB51 JUMP JUMPDEST SWAP6 POP POP PUSH1 0x40 PUSH2 0xC0B DUP10 DUP3 DUP11 ADD PUSH2 0xB7D JUMP JUMPDEST SWAP5 POP POP PUSH1 0x60 PUSH2 0xC1C DUP10 DUP3 DUP11 ADD PUSH2 0xB51 JUMP JUMPDEST SWAP4 POP POP PUSH1 0x80 PUSH2 0xC2D DUP10 DUP3 DUP11 ADD PUSH2 0xBA9 JUMP JUMPDEST SWAP3 POP POP PUSH1 0xA0 PUSH2 0xC3E DUP10 DUP3 DUP11 ADD PUSH2 0xB51 JUMP JUMPDEST SWAP2 POP POP SWAP3 SWAP6 POP SWAP3 SWAP6 POP SWAP3 SWAP6 JUMP JUMPDEST PUSH1 0x0 DUP2 SWAP1 POP SWAP2 SWAP1 POP JUMP JUMPDEST PUSH1 0x0 PUSH2 0xC70 PUSH2 0xC6B PUSH2 0xC66 DUP5 PUSH2 0xA33 JUMP JUMPDEST PUSH2 0xC4B JUMP JUMPDEST PUSH2 0xA33 JUMP JUMPDEST SWAP1 POP SWAP2 SWAP1 POP JUMP JUMPDEST PUSH1 0x0 PUSH2 0xC82 DUP3 PUSH2 0xC55 JUMP JUMPDEST SWAP1 POP SWAP2 SWAP1 POP JUMP JUMPDEST PUSH1 0x0 PUSH2 0xC94 DUP3 PUSH2 0xC77 JUMP JUMPDEST SWAP1 POP SWAP2 SWAP1 POP JUMP JUMPDEST PUSH2 0xCA4 DUP2 PUSH2 0xC89 JUMP JUMPDEST DUP3 MSTORE POP POP JUMP JUMPDEST PUSH1 0x0 PUSH1 0x20 DUP3 ADD SWAP1 POP PUSH2 0xCBF PUSH1 0x0 DUP4 ADD DUP5 PUSH2 0xC9B JUMP JUMPDEST SWAP3 SWAP2 POP POP JUMP JUMPDEST PUSH1 0x0 PUSH1 0x20 DUP3 DUP5 SUB SLT ISZERO PUSH2 0xCDB JUMPI PUSH2 0xCDA PUSH2 0xB35 JUMP JUMPDEST JUMPDEST PUSH1 0x0 PUSH2 0xCE9 DUP5 DUP3 DUP6 ADD PUSH2 0xB51 JUMP JUMPDEST SWAP2 POP POP SWAP3 SWAP2 POP POP JUMP JUMPDEST PUSH1 0x0 DUP3 DUP3 MSTORE PUSH1 0x20 DUP3 ADD SWAP1 POP SWAP3 SWAP2 POP POP JUMP JUMPDEST PUSH32 0x4E6F742076616C69642061646472657373000000000000000000000000000000 PUSH1 0x0 DUP3 ADD MSTORE POP JUMP JUMPDEST PUSH1 0x0 PUSH2 0xD39 PUSH1 0x11 DUP4 PUSH2 0xCF2 JUMP JUMPDEST SWAP2 POP PUSH2 0xD44 DUP3 PUSH2 0xD03 JUMP JUMPDEST PUSH1 0x20 DUP3 ADD SWAP1 POP SWAP2 SWAP1 POP JUMP JUMPDEST PUSH1 0x0 PUSH1 0x20 DUP3 ADD SWAP1 POP DUP2 DUP2 SUB PUSH1 0x0 DUP4 ADD MSTORE PUSH2 0xD68 DUP2 PUSH2 0xD2C JUMP JUMPDEST SWAP1 POP SWAP2 SWAP1 POP JUMP JUMPDEST PUSH32 0x4174206C65617374206F6E652070617274206F6620796F75722061756374696F PUSH1 0x0 DUP3 ADD MSTORE PUSH32 0x6E20697320696E636F72726563742E0000000000000000000000000000000000 PUSH1 0x20 DUP3 ADD MSTORE POP JUMP JUMPDEST PUSH1 0x0 PUSH2 0xDCB PUSH1 0x2F DUP4 PUSH2 0xCF2 JUMP JUMPDEST SWAP2 POP PUSH2 0xDD6 DUP3 PUSH2 0xD6F JUMP JUMPDEST PUSH1 0x40 DUP3 ADD SWAP1 POP SWAP2 SWAP1 POP JUMP JUMPDEST PUSH1 0x0 PUSH1 0x20 DUP3 ADD SWAP1 POP DUP2 DUP2 SUB PUSH1 0x0 DUP4 ADD MSTORE PUSH2 0xDFA DUP2 PUSH2 0xDBE JUMP JUMPDEST SWAP1 POP SWAP2 SWAP1 POP JUMP JUMPDEST PUSH32 0x41756374696F6E206D757374206265206C6F6E67657200000000000000000000 PUSH1 0x0 DUP3 ADD MSTORE POP JUMP JUMPDEST PUSH1 0x0 PUSH2 0xE37 PUSH1 0x16 DUP4 PUSH2 0xCF2 JUMP JUMPDEST SWAP2 POP PUSH2 0xE42 DUP3 PUSH2 0xE01 JUMP JUMPDEST PUSH1 0x20 DUP3 ADD SWAP1 POP SWAP2 SWAP1 POP JUMP JUMPDEST PUSH1 0x0 PUSH1 0x20 DUP3 ADD SWAP1 POP DUP2 DUP2 SUB PUSH1 0x0 DUP4 ADD MSTORE PUSH2 0xE66 DUP2 PUSH2 0xE2A JUMP JUMPDEST SWAP1 POP SWAP2 SWAP1 POP JUMP JUMPDEST PUSH1 0x0 PUSH1 0x60 DUP3 ADD SWAP1 POP PUSH2 0xE82 PUSH1 0x0 DUP4 ADD DUP7 PUSH2 0xA65 JUMP JUMPDEST PUSH2 0xE8F PUSH1 0x20 DUP4 ADD DUP6 PUSH2 0xA65 JUMP JUMPDEST PUSH2 0xE9C PUSH1 0x40 DUP4 ADD DUP5 PUSH2 0xAD5 JUMP JUMPDEST SWAP5 SWAP4 POP POP POP POP JUMP JUMPDEST PUSH1 0x0 PUSH1 0x40 DUP3 ADD SWAP1 POP PUSH2 0xEB9 PUSH1 0x0 DUP4 ADD DUP6 PUSH2 0xA65 JUMP JUMPDEST PUSH2 0xEC6 PUSH1 0x20 DUP4 ADD DUP5 PUSH2 0xAD5 JUMP JUMPDEST SWAP4 SWAP3 POP POP POP JUMP JUMPDEST PUSH32 0x4E487B7100000000000000000000000000000000000000000000000000000000 PUSH1 0x0 MSTORE PUSH1 0x12 PUSH1 0x4 MSTORE PUSH1 0x24 PUSH1 0x0 REVERT JUMPDEST PUSH1 0x0 PUSH2 0xF07 DUP3 PUSH2 0xACB JUMP JUMPDEST SWAP2 POP PUSH2 0xF12 DUP4 PUSH2 0xACB JUMP JUMPDEST SWAP3 POP DUP3 PUSH2 0xF22 JUMPI PUSH2 0xF21 PUSH2 0xECD JUMP JUMPDEST JUMPDEST DUP3 DUP3 DIV SWAP1 POP SWAP3 SWAP2 POP POP JUMP JUMPDEST PUSH32 0x42696420697320746F6F206C6F77000000000000000000000000000000000000 PUSH1 0x0 DUP3 ADD MSTORE POP JUMP JUMPDEST PUSH1 0x0 PUSH2 0xF63 PUSH1 0xE DUP4 PUSH2 0xCF2 JUMP JUMPDEST SWAP2 POP PUSH2 0xF6E DUP3 PUSH2 0xF2D JUMP JUMPDEST PUSH1 0x20 DUP3 ADD SWAP1 POP SWAP2 SWAP1 POP JUMP JUMPDEST PUSH1 0x0 PUSH1 0x20 DUP3 ADD SWAP1 POP DUP2 DUP2 SUB PUSH1 0x0 DUP4 ADD MSTORE PUSH2 0xF92 DUP2 PUSH2 0xF56 JUMP JUMPDEST SWAP1 POP SWAP2 SWAP1 POP JUMP INVALID LOG2 PUSH5 0x6970667358 0x22 SLT KECCAK256 OR EXTCODESIZE 0x5C PUSH5 0x9CD1908C23 SWAP10 0x5E 0xB6 0x4B 0xB7 0x1F 0xBC 0xF 0xD6 DUP16 SWAP12 0xBA JUMP 0xB9 0xDF 0x1E 0xDC 0xE8 0xD9 0xD5 0xDA 0xE8 0x28 PUSH5 0x736F6C6343 STOP ADDMOD EXP STOP CALLER "
		},
		"gasEstimates": {
			"creation": {
				"codeDepositCost": "809400",
				"executionCost": "59389",
				"totalCost": "868789"
			},
			"external": {
				"auctionFee()": "2519",
				"auctionReadyToBegin()": "2578",
				"biddingDuration()": "2451",
				"buyNow()": "2474",
				"buyNowPrice()": "2518",
				"calculateAuctionFee()": "infinite",
				"currentPrice()": "2496",
				"finalPrice()": "2518",
				"hasImmediateBuying()": "2633",
				"maximumDurationHours()": "2540",
				"minimumBid()": "2495",
				"nft()": "infinite",
				"nftId()": "2540",
				"prepareAuction()": "30912",
				"seller()": "2560",
				"setUpAuction(uint256,uint256,bool,uint256,address,uint256)": "infinite",
				"startingPrice()": "2517",
				"storeBids(uint256)": "78221",
				"topBidder()": "2538",
				"win()": "infinite"
			}
		},
		"methodIdentifiers": {
			"auctionFee()": "14525b6b",
			"auctionReadyToBegin()": "f040c874",
			"biddingDuration()": "c8e7b31d",
			"buyNow()": "9c3962f0",
			"buyNowPrice()": "5ecbdce9",
			"calculateAuctionFee()": "954fa1c3",
			"currentPrice()": "9d1b464a",
			"finalPrice()": "a6b513ee",
			"hasImmediateBuying()": "289d1ae3",
			"maximumDurationHours()": "8dbf997c",
			"minimumBid()": "d3a86386",
			"nft()": "47ccca02",
			"nftId()": "c6bc5182",
			"prepareAuction()": "0ecca7b5",
			"seller()": "08551a53",
			"setUpAuction(uint256,uint256,bool,uint256,address,uint256)": "33410630",
			"startingPrice()": "d6fbf202",
			"storeBids(uint256)": "c9c8cba8",
			"topBidder()": "01333f06",
			"win()": "473ca96c"
		}
	},
	"abi": [
		{
			"inputs": [],
			"stateMutability": "nonpayable",
			"type": "constructor"
		},
		{
			"anonymous": false,
			"inputs": [
				{
					"indexed": false,
					"internalType": "address",
					"name": "winner",
					"type": "address"
				},
				{
					"indexed": false,
					"internalType": "uint256",
					"name": "price",
					"type": "uint256"
				}
			],
			"name": "Win",
			"type": "event"
		},
		{
			"inputs": [],
			"name": "auctionFee",
			"outputs": [
				{
					"internalType": "uint256",
					"name": "",
					"type": "uint256"
				}
			],
			"stateMutability": "view",
			"type": "function"
		},
		{
			"inputs": [],
			"name": "auctionReadyToBegin",
			"outputs": [
				{
					"internalType": "bool",
					"name": "",
					"type": "bool"
				}
			],
			"stateMutability": "view",
			"type": "function"
		},
		{
			"inputs": [],
			"name": "biddingDuration",
			"outputs": [
				{
					"internalType": "uint256",
					"name": "",
					"type": "uint256"
				}
			],
			"stateMutability": "view",
			"type": "function"
		},
		{
			"inputs": [],
			"name": "buyNow",
			"outputs": [
				{
					"internalType": "uint256",
					"name": "",
					"type": "uint256"
				}
			],
			"stateMutability": "view",
			"type": "function"
		},
		{
			"inputs": [],
			"name": "buyNowPrice",
			"outputs": [
				{
					"internalType": "uint256",
					"name": "",
					"type": "uint256"
				}
			],
			"stateMutability": "view",
			"type": "function"
		},
		{
			"inputs": [],
			"name": "calculateAuctionFee",
			"outputs": [
				{
					"internalType": "uint256",
					"name": "",
					"type": "uint256"
				}
			],
			"stateMutability": "nonpayable",
			"type": "function"
		},
		{
			"inputs": [],
			"name": "currentPrice",
			"outputs": [
				{
					"internalType": "uint256",
					"name": "",
					"type": "uint256"
				}
			],
			"stateMutability": "view",
			"type": "function"
		},
		{
			"inputs": [],
			"name": "finalPrice",
			"outputs": [
				{
					"internalType": "uint256",
					"name": "",
					"type": "uint256"
				}
			],
			"stateMutability": "view",
			"type": "function"
		},
		{
			"inputs": [],
			"name": "hasImmediateBuying",
			"outputs": [
				{
					"internalType": "bool",
					"name": "",
					"type": "bool"
				}
			],
			"stateMutability": "view",
			"type": "function"
		},
		{
			"inputs": [],
			"name": "maximumDurationHours",
			"outputs": [
				{
					"internalType": "uint256",
					"name": "",
					"type": "uint256"
				}
			],
			"stateMutability": "view",
			"type": "function"
		},
		{
			"inputs": [],
			"name": "minimumBid",
			"outputs": [
				{
					"internalType": "uint256",
					"name": "",
					"type": "uint256"
				}
			],
			"stateMutability": "view",
			"type": "function"
		},
		{
			"inputs": [],
			"name": "nft",
			"outputs": [
				{
					"internalType": "contract IERC721",
					"name": "",
					"type": "address"
				}
			],
			"stateMutability": "view",
			"type": "function"
		},
		{
			"inputs": [],
			"name": "nftId",
			"outputs": [
				{
					"internalType": "uint256",
					"name": "",
					"type": "uint256"
				}
			],
			"stateMutability": "view",
			"type": "function"
		},
		{
			"inputs": [],
			"name": "prepareAuction",
			"outputs": [],
			"stateMutability": "nonpayable",
			"type": "function"
		},
		{
			"inputs": [],
			"name": "seller",
			"outputs": [
				{
					"internalType": "address payable",
					"name": "",
					"type": "address"
				}
			],
			"stateMutability": "view",
			"type": "function"
		},
		{
			"inputs": [
				{
					"internalType": "uint256",
					"name": "time",
					"type": "uint256"
				},
				{
					"internalType": "uint256",
					"name": "minBid",
					"type": "uint256"
				},
				{
					"internalType": "bool",
					"name": "hasBuyNow",
					"type": "bool"
				},
				{
					"internalType": "uint256",
					"name": "buyNow",
					"type": "uint256"
				},
				{
					"internalType": "address",
					"name": "theNft",
					"type": "address"
				},
				{
					"internalType": "uint256",
					"name": "nftID",
					"type": "uint256"
				}
			],
			"name": "setUpAuction",
			"outputs": [],
			"stateMutability": "nonpayable",
			"type": "function"
		},
		{
			"inputs": [],
			"name": "startingPrice",
			"outputs": [
				{
					"internalType": "uint256",
					"name": "",
					"type": "uint256"
				}
			],
			"stateMutability": "view",
			"type": "function"
		},
		{
			"inputs": [
				{
					"internalType": "uint256",
					"name": "bid",
					"type": "uint256"
				}
			],
			"name": "storeBids",
			"outputs": [],
			"stateMutability": "nonpayable",
			"type": "function"
		},
		{
			"inputs": [],
			"name": "topBidder",
			"outputs": [
				{
					"internalType": "address",
					"name": "",
					"type": "address"
				}
			],
			"stateMutability": "view",
			"type": "function"
		},
		{
			"inputs": [],
			"name": "win",
			"outputs": [],
			"stateMutability": "payable",
			"type": "function"
		}
	]
}