{
	"data": {
		"bytecode": {
			"linkReferences": {},
			"object": "608060405234801561001057600080fd5b50610518806100206000396000f3fe608060405234801561001057600080fd5b50600436106100365760003560e01c806359e02dd71461003b5780637dacda0314610059575b600080fd5b610043610075565b604051610050919061029e565b60405180910390f35b610073600480360381019061006e9190610409565b610123565b005b60606000808154811061008b5761008a610452565b5b9060005260206000200180546100a0906104b0565b80601f01602080910402602001604051908101604052809291908181526020018280546100cc906104b0565b80156101195780601f106100ee57610100808354040283529160200191610119565b820191906000526020600020905b8154815290600101906020018083116100fc57829003601f168201915b5050505050905090565b60008190806001815401808255809150506001900390600052602060002001600090919091909150908051906020019061015e929190610162565b5050565b82805461016e906104b0565b90600052602060002090601f01602090048101928261019057600085556101d7565b82601f106101a957805160ff19168380011785556101d7565b828001600101855582156101d7579182015b828111156101d65782518255916020019190600101906101bb565b5b5090506101e491906101e8565b5090565b5b808211156102015760008160009055506001016101e9565b5090565b600081519050919050565b600082825260208201905092915050565b60005b8381101561023f578082015181840152602081019050610224565b8381111561024e576000848401525b50505050565b6000601f19601f8301169050919050565b600061027082610205565b61027a8185610210565b935061028a818560208601610221565b61029381610254565b840191505092915050565b600060208201905081810360008301526102b88184610265565b905092915050565b6000604051905090565b600080fd5b600080fd5b600080fd5b600080fd5b7f4e487b7100000000000000000000000000000000000000000000000000000000600052604160045260246000fd5b61031682610254565b810181811067ffffffffffffffff82111715610335576103346102de565b5b80604052505050565b60006103486102c0565b9050610354828261030d565b919050565b600067ffffffffffffffff821115610374576103736102de565b5b61037d82610254565b9050602081019050919050565b82818337600083830152505050565b60006103ac6103a784610359565b61033e565b9050828152602081018484840111156103c8576103c76102d9565b5b6103d384828561038a565b509392505050565b600082601f8301126103f0576103ef6102d4565b5b8135610400848260208601610399565b91505092915050565b60006020828403121561041f5761041e6102ca565b5b600082013567ffffffffffffffff81111561043d5761043c6102cf565b5b610449848285016103db565b91505092915050565b7f4e487b7100000000000000000000000000000000000000000000000000000000600052603260045260246000fd5b7f4e487b7100000000000000000000000000000000000000000000000000000000600052602260045260246000fd5b600060028204905060018216806104c857607f821691505b602082108114156104dc576104db610481565b5b5091905056fea264697066735822122060e99044e39a865cd2fdc3e2e5c3d47c79973321a45ea11ac880e0e5c99f393764736f6c634300080a0033",
			"opcodes": "PUSH1 0x80 PUSH1 0x40 MSTORE CALLVALUE DUP1 ISZERO PUSH2 0x10 JUMPI PUSH1 0x0 DUP1 REVERT JUMPDEST POP PUSH2 0x518 DUP1 PUSH2 0x20 PUSH1 0x0 CODECOPY PUSH1 0x0 RETURN INVALID PUSH1 0x80 PUSH1 0x40 MSTORE CALLVALUE DUP1 ISZERO PUSH2 0x10 JUMPI PUSH1 0x0 DUP1 REVERT JUMPDEST POP PUSH1 0x4 CALLDATASIZE LT PUSH2 0x36 JUMPI PUSH1 0x0 CALLDATALOAD PUSH1 0xE0 SHR DUP1 PUSH4 0x59E02DD7 EQ PUSH2 0x3B JUMPI DUP1 PUSH4 0x7DACDA03 EQ PUSH2 0x59 JUMPI JUMPDEST PUSH1 0x0 DUP1 REVERT JUMPDEST PUSH2 0x43 PUSH2 0x75 JUMP JUMPDEST PUSH1 0x40 MLOAD PUSH2 0x50 SWAP2 SWAP1 PUSH2 0x29E JUMP JUMPDEST PUSH1 0x40 MLOAD DUP1 SWAP2 SUB SWAP1 RETURN JUMPDEST PUSH2 0x73 PUSH1 0x4 DUP1 CALLDATASIZE SUB DUP2 ADD SWAP1 PUSH2 0x6E SWAP2 SWAP1 PUSH2 0x409 JUMP JUMPDEST PUSH2 0x123 JUMP JUMPDEST STOP JUMPDEST PUSH1 0x60 PUSH1 0x0 DUP1 DUP2 SLOAD DUP2 LT PUSH2 0x8B JUMPI PUSH2 0x8A PUSH2 0x452 JUMP JUMPDEST JUMPDEST SWAP1 PUSH1 0x0 MSTORE PUSH1 0x20 PUSH1 0x0 KECCAK256 ADD DUP1 SLOAD PUSH2 0xA0 SWAP1 PUSH2 0x4B0 JUMP JUMPDEST DUP1 PUSH1 0x1F ADD PUSH1 0x20 DUP1 SWAP2 DIV MUL PUSH1 0x20 ADD PUSH1 0x40 MLOAD SWAP1 DUP2 ADD PUSH1 0x40 MSTORE DUP1 SWAP3 SWAP2 SWAP1 DUP2 DUP2 MSTORE PUSH1 0x20 ADD DUP3 DUP1 SLOAD PUSH2 0xCC SWAP1 PUSH2 0x4B0 JUMP JUMPDEST DUP1 ISZERO PUSH2 0x119 JUMPI DUP1 PUSH1 0x1F LT PUSH2 0xEE JUMPI PUSH2 0x100 DUP1 DUP4 SLOAD DIV MUL DUP4 MSTORE SWAP2 PUSH1 0x20 ADD SWAP2 PUSH2 0x119 JUMP JUMPDEST DUP3 ADD SWAP2 SWAP1 PUSH1 0x0 MSTORE PUSH1 0x20 PUSH1 0x0 KECCAK256 SWAP1 JUMPDEST DUP2 SLOAD DUP2 MSTORE SWAP1 PUSH1 0x1 ADD SWAP1 PUSH1 0x20 ADD DUP1 DUP4 GT PUSH2 0xFC JUMPI DUP3 SWAP1 SUB PUSH1 0x1F AND DUP3 ADD SWAP2 JUMPDEST POP POP POP POP POP SWAP1 POP SWAP1 JUMP JUMPDEST PUSH1 0x0 DUP2 SWAP1 DUP1 PUSH1 0x1 DUP2 SLOAD ADD DUP1 DUP3 SSTORE DUP1 SWAP2 POP POP PUSH1 0x1 SWAP1 SUB SWAP1 PUSH1 0x0 MSTORE PUSH1 0x20 PUSH1 0x0 KECCAK256 ADD PUSH1 0x0 SWAP1 SWAP2 SWAP1 SWAP2 SWAP1 SWAP2 POP SWAP1 DUP1 MLOAD SWAP1 PUSH1 0x20 ADD SWAP1 PUSH2 0x15E SWAP3 SWAP2 SWAP1 PUSH2 0x162 JUMP JUMPDEST POP POP JUMP JUMPDEST DUP3 DUP1 SLOAD PUSH2 0x16E SWAP1 PUSH2 0x4B0 JUMP JUMPDEST SWAP1 PUSH1 0x0 MSTORE PUSH1 0x20 PUSH1 0x0 KECCAK256 SWAP1 PUSH1 0x1F ADD PUSH1 0x20 SWAP1 DIV DUP2 ADD SWAP3 DUP3 PUSH2 0x190 JUMPI PUSH1 0x0 DUP6 SSTORE PUSH2 0x1D7 JUMP JUMPDEST DUP3 PUSH1 0x1F LT PUSH2 0x1A9 JUMPI DUP1 MLOAD PUSH1 0xFF NOT AND DUP4 DUP1 ADD OR DUP6 SSTORE PUSH2 0x1D7 JUMP JUMPDEST DUP3 DUP1 ADD PUSH1 0x1 ADD DUP6 SSTORE DUP3 ISZERO PUSH2 0x1D7 JUMPI SWAP2 DUP3 ADD JUMPDEST DUP3 DUP2 GT ISZERO PUSH2 0x1D6 JUMPI DUP3 MLOAD DUP3 SSTORE SWAP2 PUSH1 0x20 ADD SWAP2 SWAP1 PUSH1 0x1 ADD SWAP1 PUSH2 0x1BB JUMP JUMPDEST JUMPDEST POP SWAP1 POP PUSH2 0x1E4 SWAP2 SWAP1 PUSH2 0x1E8 JUMP JUMPDEST POP SWAP1 JUMP JUMPDEST JUMPDEST DUP1 DUP3 GT ISZERO PUSH2 0x201 JUMPI PUSH1 0x0 DUP2 PUSH1 0x0 SWAP1 SSTORE POP PUSH1 0x1 ADD PUSH2 0x1E9 JUMP JUMPDEST POP SWAP1 JUMP JUMPDEST PUSH1 0x0 DUP2 MLOAD SWAP1 POP SWAP2 SWAP1 POP JUMP JUMPDEST PUSH1 0x0 DUP3 DUP3 MSTORE PUSH1 0x20 DUP3 ADD SWAP1 POP SWAP3 SWAP2 POP POP JUMP JUMPDEST PUSH1 0x0 JUMPDEST DUP4 DUP2 LT ISZERO PUSH2 0x23F JUMPI DUP1 DUP3 ADD MLOAD DUP2 DUP5 ADD MSTORE PUSH1 0x20 DUP2 ADD SWAP1 POP PUSH2 0x224 JUMP JUMPDEST DUP4 DUP2 GT ISZERO PUSH2 0x24E JUMPI PUSH1 0x0 DUP5 DUP5 ADD MSTORE JUMPDEST POP POP POP POP JUMP JUMPDEST PUSH1 0x0 PUSH1 0x1F NOT PUSH1 0x1F DUP4 ADD AND SWAP1 POP SWAP2 SWAP1 POP JUMP JUMPDEST PUSH1 0x0 PUSH2 0x270 DUP3 PUSH2 0x205 JUMP JUMPDEST PUSH2 0x27A DUP2 DUP6 PUSH2 0x210 JUMP JUMPDEST SWAP4 POP PUSH2 0x28A DUP2 DUP6 PUSH1 0x20 DUP7 ADD PUSH2 0x221 JUMP JUMPDEST PUSH2 0x293 DUP2 PUSH2 0x254 JUMP JUMPDEST DUP5 ADD SWAP2 POP POP SWAP3 SWAP2 POP POP JUMP JUMPDEST PUSH1 0x0 PUSH1 0x20 DUP3 ADD SWAP1 POP DUP2 DUP2 SUB PUSH1 0x0 DUP4 ADD MSTORE PUSH2 0x2B8 DUP2 DUP5 PUSH2 0x265 JUMP JUMPDEST SWAP1 POP SWAP3 SWAP2 POP POP JUMP JUMPDEST PUSH1 0x0 PUSH1 0x40 MLOAD SWAP1 POP SWAP1 JUMP JUMPDEST PUSH1 0x0 DUP1 REVERT JUMPDEST PUSH1 0x0 DUP1 REVERT JUMPDEST PUSH1 0x0 DUP1 REVERT JUMPDEST PUSH1 0x0 DUP1 REVERT JUMPDEST PUSH32 0x4E487B7100000000000000000000000000000000000000000000000000000000 PUSH1 0x0 MSTORE PUSH1 0x41 PUSH1 0x4 MSTORE PUSH1 0x24 PUSH1 0x0 REVERT JUMPDEST PUSH2 0x316 DUP3 PUSH2 0x254 JUMP JUMPDEST DUP2 ADD DUP2 DUP2 LT PUSH8 0xFFFFFFFFFFFFFFFF DUP3 GT OR ISZERO PUSH2 0x335 JUMPI PUSH2 0x334 PUSH2 0x2DE JUMP JUMPDEST JUMPDEST DUP1 PUSH1 0x40 MSTORE POP POP POP JUMP JUMPDEST PUSH1 0x0 PUSH2 0x348 PUSH2 0x2C0 JUMP JUMPDEST SWAP1 POP PUSH2 0x354 DUP3 DUP3 PUSH2 0x30D JUMP JUMPDEST SWAP2 SWAP1 POP JUMP JUMPDEST PUSH1 0x0 PUSH8 0xFFFFFFFFFFFFFFFF DUP3 GT ISZERO PUSH2 0x374 JUMPI PUSH2 0x373 PUSH2 0x2DE JUMP JUMPDEST JUMPDEST PUSH2 0x37D DUP3 PUSH2 0x254 JUMP JUMPDEST SWAP1 POP PUSH1 0x20 DUP2 ADD SWAP1 POP SWAP2 SWAP1 POP JUMP JUMPDEST DUP3 DUP2 DUP4 CALLDATACOPY PUSH1 0x0 DUP4 DUP4 ADD MSTORE POP POP POP JUMP JUMPDEST PUSH1 0x0 PUSH2 0x3AC PUSH2 0x3A7 DUP5 PUSH2 0x359 JUMP JUMPDEST PUSH2 0x33E JUMP JUMPDEST SWAP1 POP DUP3 DUP2 MSTORE PUSH1 0x20 DUP2 ADD DUP5 DUP5 DUP5 ADD GT ISZERO PUSH2 0x3C8 JUMPI PUSH2 0x3C7 PUSH2 0x2D9 JUMP JUMPDEST JUMPDEST PUSH2 0x3D3 DUP5 DUP3 DUP6 PUSH2 0x38A JUMP JUMPDEST POP SWAP4 SWAP3 POP POP POP JUMP JUMPDEST PUSH1 0x0 DUP3 PUSH1 0x1F DUP4 ADD SLT PUSH2 0x3F0 JUMPI PUSH2 0x3EF PUSH2 0x2D4 JUMP JUMPDEST JUMPDEST DUP2 CALLDATALOAD PUSH2 0x400 DUP5 DUP3 PUSH1 0x20 DUP7 ADD PUSH2 0x399 JUMP JUMPDEST SWAP2 POP POP SWAP3 SWAP2 POP POP JUMP JUMPDEST PUSH1 0x0 PUSH1 0x20 DUP3 DUP5 SUB SLT ISZERO PUSH2 0x41F JUMPI PUSH2 0x41E PUSH2 0x2CA JUMP JUMPDEST JUMPDEST PUSH1 0x0 DUP3 ADD CALLDATALOAD PUSH8 0xFFFFFFFFFFFFFFFF DUP2 GT ISZERO PUSH2 0x43D JUMPI PUSH2 0x43C PUSH2 0x2CF JUMP JUMPDEST JUMPDEST PUSH2 0x449 DUP5 DUP3 DUP6 ADD PUSH2 0x3DB JUMP JUMPDEST SWAP2 POP POP SWAP3 SWAP2 POP POP JUMP JUMPDEST PUSH32 0x4E487B7100000000000000000000000000000000000000000000000000000000 PUSH1 0x0 MSTORE PUSH1 0x32 PUSH1 0x4 MSTORE PUSH1 0x24 PUSH1 0x0 REVERT JUMPDEST PUSH32 0x4E487B7100000000000000000000000000000000000000000000000000000000 PUSH1 0x0 MSTORE PUSH1 0x22 PUSH1 0x4 MSTORE PUSH1 0x24 PUSH1 0x0 REVERT JUMPDEST PUSH1 0x0 PUSH1 0x2 DUP3 DIV SWAP1 POP PUSH1 0x1 DUP3 AND DUP1 PUSH2 0x4C8 JUMPI PUSH1 0x7F DUP3 AND SWAP2 POP JUMPDEST PUSH1 0x20 DUP3 LT DUP2 EQ ISZERO PUSH2 0x4DC JUMPI PUSH2 0x4DB PUSH2 0x481 JUMP JUMPDEST JUMPDEST POP SWAP2 SWAP1 POP JUMP INVALID LOG2 PUSH5 0x6970667358 0x22 SLT KECCAK256 PUSH1 0xE9 SWAP1 DIFFICULTY 0xE3 SWAP11 DUP7 0x5C 0xD2 REVERT 0xC3 0xE2 0xE5 0xC3 0xD4 PUSH29 0x79973321A45EA11AC880E0E5C99F393764736F6C634300080A00330000 "
		},
		"gasEstimates": {
			"creation": {
				"codeDepositCost": "260800",
				"executionCost": "300",
				"totalCost": "261100"
			},
			"external": {
				"peek()": "infinite",
				"push(bytes)": "infinite"
			}
		},
		"methodIdentifiers": {
			"peek()": "59e02dd7",
			"push(bytes)": "7dacda03"
		}
	},
	"abi": [
		{
			"inputs": [],
			"name": "peek",
			"outputs": [
				{
					"internalType": "bytes",
					"name": "data",
					"type": "bytes"
				}
			],
			"stateMutability": "nonpayable",
			"type": "function"
		},
		{
			"inputs": [
				{
					"internalType": "bytes",
					"name": "data",
					"type": "bytes"
				}
			],
			"name": "push",
			"outputs": [],
			"stateMutability": "nonpayable",
			"type": "function"
		}
	]
}